:020000040800F2
:1000000000000220FD3900085D3700086137000854
:1000100065370008693700086D37000800000000E8
:10002000000000000000000000000000112A00088D
:100030007137000800000000A12A0008052B000805
:100040004D3A00084D3A00084D3A00084D3A000874
:100050004D3A00084D3A00084D3A00084D3A000864
:100060004D3A00084D3A00084D3A00084D3A000854
:100070004D3A00084D3A00084D3A00084D3A000844
:100080004D3A00084D3A00084D3A000800000000C3
:100090000000000000000000000000004D3A0008D1
:1000A0004D3A0008753700084D3A00084D3A0008EF
:1000B0004D3A00084D3A00084D3A00084D3A000804
:1000C0004D3A00084D3A00084D3A00084D3A0008F4
:1000D0004D3A0008813700084D3A00080000000042
:1000E0004D3A00084D3A00084D3A00080000000063
:1000F0000000000000000000000000004D3A000871
:10010000000000004D3A00084D3A00084D3A000842
:1001100000000000000000000000000000000000DF
:100120004D3A00084D3A00084D3A00084D3A000893
:100130004D3A000800000000000000000000000030
:100140000000000000000000000000004D3A000820
:100150004D3A00084D3A00084D3A0008993700081A
:100160004D3A00084D3A0008000000000000000071
:10017000000000000000000000000000000000007F
:10018000000000004D3A00080000000000000000E0
:080190004D3A00084D3A000849
:1001A00010B5054C237833B9044B13B10448AFF3B1
:1001B00000800123237010BD840200200000000095
:1001C0008C4C000808B5034B1BB103490348AFF33F
:1001D000008008BD00000000880200208C4C000850
:1001E00053B94AB9002908BF00281CBF4FF0FF319E
:1001F0004FF0FF3000F072B9ADF1080C6DE904CE9C
:1002000000F006F8DDF804E0DDE9022304B07047F1
:100210002DE9F047089E04468846002B4BD18A42C0
:10022000154667D9B2FA82F24AB1C2F1200701FA43
:1002300002F320FA07F7954047EA030894404FEA93
:10024000154E230CB8FBFEF71FFA85FC0EFB178832
:1002500043EA084307FB0CF1994209D9EB1807F16F
:10026000FF3080F01B81994240F21881023F2B44FD
:100270005B1AA4B2B3FBFEF00EFB103344EA034456
:1002800000FB0CFCA44509D92C1900F1FF3380F0C8
:100290000781A44540F2048102382C4440EA07401B
:1002A000A4EB0C0400271EB1D4400023C6E9004390
:1002B0003946BDE8F0878B4209D9002E00F0EB806B
:1002C0000027C6E9000138463946BDE8F087B3FA91
:1002D00083F7002F47D18B4202D3824200F2FA808B
:1002E000841A61EB030301209846002EE0D0C6E992
:1002F0000048DDE702B9FFDEB2FA82F2002A40F0E0
:100300008F80491B4FEA154E1FFA85F80127B1FB74
:10031000FEFC230C0EFB1C1143EA014308FB0CF10D
:10032000994207D9EB180CF1FF3002D2994200F242
:10033000CD808446591AA3B2B1FBFEF00EFB101417
:1003400043EA044408FB00F8A04507D92C1900F142
:10035000FF3302D2A04500F2B6801846A4EB080491
:1003600040EA0C409FE7C7F1200CBB4022FA0CFE8C
:100370004EEA030E01FA07F420FA0CF521FA0CF309
:100380004FEA1E482543B3FBF8F92C0C08FB193340
:100390001FFA8EFA44EA034309FB0AF49C4202FA6C
:1003A00007F200FA07F10BD91EEB030309F1FF3046
:1003B00080F087809C4240F28480A9F10209734456
:1003C0001B1BADB2B3FBF8F008FB103345EA034446
:1003D00000FB0AFAA24508D91EEB040400F1FF3322
:1003E0006BD2A24569D90238744440EA0940A0FBA7
:1003F0000289A4EB0A044C45C2464B4654D351D063
:10040000002E69D0B1EB0A0564EB030404FA0CFC7E
:10041000FD40FC404CEA0505C6E90054002747E7CB
:10042000C2F1200320FA03F7954001FA02F021FA05
:1004300003F34FEA154E3843010CB3FBFEF71FFAE6
:1004400085F80EFB173341EA034107FB08F38B42A3
:1004500004FA02F407D9691807F1FF3C2FD28B4246
:100460002DD9023F2944CB1A81B2B3FBFEF00EFB1B
:10047000103341EA034100FB08F38B4207D96918A6
:1004800000F1FF3C17D28B4215D902382944C91A12
:1004900040EA07473BE73746304609E70746E7E6C5
:1004A0001846FBE64145ABD2B8EB020A69EB0E02F7
:1004B00001381346A4E76046E9E7184695E7674622
:1004C000D1E781467CE702382C4447E7ACF1020CC7
:1004D0002B442FE7384608E73746E9E6704700BF68
:1004E000034613F8012B002AFBD1181A0138704774
:1004F00001F0FF01102A2BDB10F0070F08D010F8D5
:10050000013B013A8B422DD010F0070F42B3F6D1D8
:10051000F0B441EA012141EA014122F007047FF0F1
:1005200000070023F0E80256083C85EA010586EA48
:10053000010685FA47F5A3FA87F586FA47F6A5FA84
:1005400087F68EB9EED1F0BC01F0FF0102F0070290
:1005500032B110F8013B013A83EA010313B1F8D13B
:100560000020704701387047002D06BF354603381C
:10057000073815F0010F07D1013015F4807F02BF55
:10058000013015F4C03F0130F0BC0138704700BFA6
:1005900008B50B4B1A6842F400721A601A6842F4EC
:1005A00080621A601A6842F480721A60032000F0B8
:1005B0001BF8002003F094F803F072F8002008BD47
:1005C000003C0240034A044B11681B780B44136043
:1005D000704700BF1C41002000000020014B18683C
:1005E000704700BF1C410020074AD3684FF6FF0147
:1005F0000B40000243F0BF6300F4E06043F40033BB
:100600000343D360704700BF00ED00E0184BDB6888
:10061000C3F3022330B4C3F10705042D03F104042E
:1006200028BF0425062C19D9033B4FF0FF349C400A
:1006300022EA04044FF0FF32AA4021EA020101FA43
:1006400003F2224312010028D2B20ADB00F160401B
:1006500000F5614080F8002330BC70470024234639
:10066000E8E7044B00F00F0003441A7630BC7047F3
:1006700000ED00E0FCEC00E0002807DB00F01F01CB
:1006800001234009024A8B4042F82030704700BFE6
:1006900000E100E02DE9F04FDFF8B4C1D1F80080AF
:1006A00083B08E4600254FF0010902E00135102D80
:1006B0007ED009FA05F308EA03018B42F6D1DEF891
:1006C000044024F0100ABAF1020F74D06F00032224
:1006D000D0F800B0BA40D24304F0030602EA0B0B94
:1006E000BE400AF1FF3A46EA0B06BAF1010F066076
:1006F00040F28280C668DEF808303240BB401343C7
:10070000E700C360D2D54D4A00230193536C43F4F4
:1007100080435364536C25F0030606F1804603F4CE
:10072000804306F59C36019305F00302019BB768F0
:1007300092000F23934027EA0303414FB84211D0A0
:1007400007F58067B8426AD03E4FB8426BD03E4F43
:10075000B8426DD03D4FB8420CBF0427072707FAB7
:1007600002F21343B360DCF80030CA43E60354BF1F
:1007700013400B43CCF80030DCF80430A70354BF1F
:1007800013400B43CCF80430DCF80830E60254BFC9
:1007900013400B43CCF80830DCF80C30A40205F110
:1007A000010554BF13400B43102DCCF80C3080D101
:1007B00003B0BDE8F08FEF0800EB870705F00706F0
:1007C0003A6AB6004FF00F0B0BFA06FB22EA0B0A4F
:1007D000DEF81020B24042EA0A023A626F000322B9
:1007E000D0F800A0BA40D24304F003060AEA020A95
:1007F000BE4046EA0A060660866806EA020ADEF895
:100800000C60BE4046EA0A068660D0F804A0C4F335
:1008100000162AEA0303AE401E4346606AE709FA5F
:1008200002F213439EE7022707FA02F2134399E705
:10083000032707FA02F2134394E700BF003802408F
:100840000000024000080240000C0240001002407C
:10085000003C0140002800F09780F8B590F83D304A
:10086000044603F0FF02002B00F087802268242357
:1008700084F83D30136823F00103136000F02CFB73
:1008800061684B4B99424BD84A4B98427AD92268BF
:10089000494B5568A3FB00639B0C25F03F051D43A6
:1008A0005560156A013325F03F052B431362D56966
:1008B0004900431EB3FBF1F30133C3F30B0325F4EB
:1008C0004F45042B38BF042325F0FF052B43D3618C
:1008D000D4E907351068216920F0C0002B43034399
:1008E00013609068E568636920F4034020F0FF001E
:1008F000294301439160D168A06921F0FF010343BE
:100900000B43D3601168002341F0010120251160E1
:100910001846236484F83D50236384F83E30F8BDC4
:10092000264B98422ED92268234B5668244FA3FBAE
:1009300000539D0C26F03F062E434FF496735660ED
:1009400003FB05F3A7FB0353156AA6689B0925F073
:100950003F0501332B431362D56925F44F45013818
:1009600025F0FF0596B901EB4101B0FBF1F0013034
:10097000C0F30B00C0B90123A8E780F83C2002F0C7
:10098000D5FB73E70120F8BD0120704701EB810121
:1009900001EB8101B0FBF1F00130C0F30B00002846
:1009A000E9D040F4404391E740F400438EE700BFB4
:1009B000A08601007F841E0083DE1B43FF083D00EC
:1009C000D34D6210002800F032812DE9F041036818
:1009D000DD0782B004462FD5AC498A6802F00C02CC
:1009E000042A00F0EA808A6802F00C02082A00F06B
:1009F000E0806368B3F5803F00F0E980B3F5A02F95
:100A000000F05481A14D2A6822F480322A602A68BD
:100A100022F480222A60002B40F0DE80FFF7DEFD0A
:100A2000064605E0FFF7DAFD801B642800F2F2803D
:100A30002B689B03F6D423689F0775D41A0715D536
:100A40006369002B00F0A580914B904D01221A6044
:100A5000FFF7C4FD064605E0FFF7C0FD801B022836
:100A600000F2D8806B6F9B07F6D5236858073BD5FB
:100A7000864A136C13F0805340F0DB800193136CB3
:100A800043F080531364136C03F080530193019B74
:100A90000126804D2A68D10540F1AC80A368012B66
:100AA00000F0C980052B00F00B81784D2A6F22F0F1
:100AB00001022A672A6F22F004022A67002B40F005
:100AC000BF80FFF78BFD41F28837804606E0FFF7D5
:100AD00085FDA0EB0800B84200F29C802B6F9807C0
:100AE000F5D4002E40F0DC80A269CAB1674DA96838
:100AF00001F00C01082948D0022A674A4FF0000192
:100B0000116000F0E780FFF769FD2C46054604E020
:100B1000FFF764FD401B02287CD823689B01F7D4B3
:100B2000002002B0BDE8F081584A916811F00C0F26
:100B300024D0916801F00C0108291CD0E368002B37
:100B400000F09280554B514D01221A60FFF746FD8F
:100B5000064604E0FFF742FD801B02285AD82B68A6
:100B60009807F7D52B68226923F0F80343EAC203FC
:100B70002B60236862E752685602DFD4434A12684A
:100B800095074BD5E268012A48D0012002B0BDE8A4
:100B9000F0813F4A3D4D1360FFF720FD064604E01B
:100BA000FFF71CFD801B022834D86B6F9F07F7D41A
:100BB0005BE74A6850027FF51CAF344A1268910324
:100BC0007FF53AAF6268002A7FF436AFDDE72F4A3F
:100BD000136843F480331360FFF700FD2B4D064686
:100BE00004E0FFF7FBFC801B642813D82B689A03F2
:100BF000F7D520E72A6842F480722A60FFF7EEFCFE
:100C000007462B68DA053FF549AFFFF7E7FCC01B45
:100C10000228F6D9032002B0BDE8F0811B49206903
:100C20000A6822F0F80242EAC0020A6006E70120E0
:100C3000704700262DE7154A136F43F00103136731
:100C4000FFF7CCFC114D804641F2883705E0FFF7F5
:100C5000C5FCA0EB0800B842DCD82B6F9B07F6D58B
:100C6000002E3FF441AF1BE00C4A084D1360FFF724
:100C7000B5FC064604E0FFF7B1FC801B0228C9D88A
:100C80002B689907F7D42368D8E600BF00380240E4
:100C9000800E47420070004060004742000047421B
:100CA000234A136C23F0805313641DE7204B1A680A
:100CB00042F480221A601A6842F480321A608BE78C
:100CC0001B4B1A6F42F004021A671A6F42F00102BE
:100CD0001A67B5E7FFF782FC064604E0FFF77EFCE3
:100CE000801B022896D82B689901F7D4D4E90736DF
:100CF000D4E90902E16A0E4C334343EA80135208F7
:100D000043EA0163013A0B4943EA024301226B6063
:100D10000A60FFF763FC054605E0FFF75FFC401B38
:100D200002283FF677AF23689A01F6D5F8E600BFB0
:100D30000038024060004742174908B58B6803F04D
:100D40000C03042B1BD0082B17D14A684B6813F4F3
:100D5000800302F03F0214D149681048C1F38811A2
:100D6000A1FB0001FFF73CFA0B4B5B68C3F30143A7
:100D700001335B00B0FBF3F008BD084808BD08482C
:100D800008BD4B680648C3F38813A3FB000100238A
:100D9000FFF726FAE8E700BF003802400024F4001D
:100DA00000127A0060B1484A136803F00F038B42C7
:100DB00008D2CBB21370136803F00F038B4201D03B
:100DC0000120704703682DE9F0419D0714D55C07A9
:100DD00004D53E4CA26842F4E052A2601A0704D542
:100DE0003A4CA26842F46042A260384C8568A2681E
:100DF00022F0F0022A43A260DF0704460D4622D506
:100E00004268012A56D0931E012B304B1B6858D9DB
:100E1000990725D52D4EB36823F003031343B36020
:100E2000FFF7DCFB41F28837804605E0FFF7D6FB91
:100E3000A0EB0800B84242D8B368626803F00C0324
:100E4000B3EB820FF2D1204A136803F00F03AB42D9
:100E500009D9EBB21370136803F00F03AB4202D051
:100E60000120BDE8F08123685A0706D51749E068DC
:100E70008A6822F4E05202438A601B0711D4FFF70C
:100E80005BFF124B12499B68124AC3F30313CB5CFE
:100E900020FA03F30020136002F022FC0020BDE8DA
:100EA000F0810A4A2169936823F4604343EAC1034D
:100EB0009360E4E7054B1B689E03ABD4D0E70320A7
:100EC000EDE79801A6D4CBE7003C02400038024091
:100ED000B84C0008B0000020044B054A9B68054947
:100EE000C3F382230868D35CD840704700380240BF
:100EF000C84C0008B0000020044B054A9B68054917
:100F0000C3F342330868D35CD840704700380240CE
:100F1000C84C0008B00000200E4B0F2202609A68F7
:100F200002F0030242609A6802F0F00282609A685E
:100F300002F4E052C2609B68DB0810B403F4E05393
:100F4000054C036123685DF8044B03F00F030B604D
:100F5000704700BF00380240003C0240704700BFAD
:100F6000002846D0F8B590F83D30044603F0FF0263
:100F700033B32268284DA669E0686168022384F8CB
:100F80003D30AA42136836D0B2F1804F1DD0A5F58E
:100F90007C45AA4219D005F58065AA4215D005F511
:100FA0008065AA4211D005F59A35AA4211D005F5FF
:100FB0008065AA420DD005F58065AA420DD108E0F2
:100FC00080F83C20FFF7CAFFD3E7A56823F0700341
:100FD0002B43256923F440732B4323F080033343D1
:100FE0001360D062916201235361002084F83D3088
:100FF000F8BD01207047A768256923F070033B43C3
:1010000023F440732B4323F0800333431360D062F7
:10101000916263691363E6E7000001400368DA68E0
:1010200042F00102DA609A6802F00702062A03D051
:101030001A6842F001021A6000207047704700BF32
:10104000704700BF704700BF704700BF03681A6950
:10105000910710B5044602D5DA6892075FD41A6981
:10106000500702D5DA68510746D41A69120702D52B
:10107000DA6810072ED41A69D20602D5DA68D006CB
:1010800018D41A69D10702D5DA68D2075DD41A6973
:10109000100602D5DA6811065FD41A69520602D525
:1010A000DA68500661D41A69910602D5DA689206A8
:1010B00043D410BD6FF010021A61DB69082213F4EB
:1010C000407F2277204664D0FFF7BAFF00222368D2
:1010D0002277D6E76FF008021A61DB6904229907CC
:1010E0002277204652D1FFF7A9FF2046FFF7AAFF3B
:1010F000002223682277BEE76FF004021A619B6921
:10110000022213F4407F227720463CD1FFF796FF5E
:101110002046FFF797FF002223682277A5E76FF0AC
:1011200002021A619B6901229B07027725D0FFF713
:1011300087FF00222368227791E76FF02002204684
:101140001A61BDE8104000F02BB86FF001021A617F
:10115000204602F099FA236899E76FF080021A613D
:10116000204600F01FF8236897E76FF040021A61ED
:101170002046FFF769FF236895E7FFF75FFF2046EA
:10118000FFF760FFD5E7FFF75BFFC4E7FFF758FF06
:10119000AEE7FFF753FF2046FFF754FF96E700BF87
:1011A000704700BF704700BF01790368C9B1B3B190
:1011B0004279012A36D021D3022A38D1244A116833
:1011C000194311605168194351600021827932B38B
:1011D000022A38D0032A1BD0012A2AD0012318461C
:1011E00070471B4A10B41468DB431C4014605068FD
:1011F0005DF8044B1840506008467047144A516827
:1012000021EA030151601168194311600021DDE7F3
:101210000F4A906818439060D0680343D3600B4630
:10122000184670470A4A116821EA0301C9E70121FB
:10123000CCE7074AD06820EA0300D06090680343F7
:1012400093600B46CBE7024A906820EA0300E2E78E
:10125000003C01402DE9F04F0C6894FAA4F24E686E
:10126000B2FA82F234FA02F306F1FF3E79D04FF07F
:10127000010C03274FF00F0803E0013234FA02F3A8
:101280006FD00CFA02F32340F7D0D0F8009093FA15
:10129000A3FABAFA8AFA93FAA3F5B5FA85F54FEAF2
:1012A0004A0A6D0007FA0AFA06FA05F529EA0A0958
:1012B00049EA0505BEF1010F056016D8856893FA65
:1012C000A3F9B9FA89F993FAA3FA4FEA490907FA97
:1012D00009F925EA0909BAFA8AFA8D684FEA4A0A31
:1012E00005FA0AF549EA05058560C56893FAA3F988
:1012F000B9FA89F993FAA3FA4FEA490907FA09F901
:1013000025EA0909BAFA8AFA0D694FEA4A0A05FA82
:101310000AF549EA0505022EC560AED193FAA3FA93
:10132000BAFA8AFABAF1070F4FEA1325D1F81490E6
:1013300025DC056A93FAA3FABAFA8AFA93FAA3F3B8
:10134000B3FA83F34FEA8A0A9B0008FA0AFA09FA09
:1013500003F325EA0A052B430132036234FA02F350
:101360008FD1BEF1010F07D8CA68436802FB04F2AF
:1013700023EA0404144344600020BDE8F08FD0F851
:1013800024A095FAA5FBBBFA8BFB95FAA5F3B3FA5B
:1013900083F34FEA8B0B9B0008FA0BFB09FA03F36C
:1013A0002AEA0B0A4AEA0303436266E71F4A936884
:1013B00003F00C03042BF0B436D0082B19D01C4BCF
:1013C0001A4A036091681B4D1B4CC1F30311695C01
:1013D000CB4043609168C1F38221615C23FA01F143
:1013E00081609268C2F34232A25CD340C360F0BC19
:1013F00070475668556853685168104C0C4FC1F3DC
:101400000141C3F3881206F480060131002E14BF97
:1014100023463B46490005F03F04B3FBF4F302FBCF
:1014200003F3B3FBF1F3CBE7044BC9E70038024009
:101430000024F400B84C0008C84C000800127A00E0
:10144000C3689B0401D50120704730B54B68044642
:101450000D46D1E90310E2680B43A969034322F466
:1014600016420B4322F00C021343E3602269AB687F
:10147000696922F440521A432261636923F440737C
:101480000B4385B063616846FFF790FF264B9C4293
:101490002BD0264B9C4205D0254B9C4225D00120C9
:1014A00005B030BD029B002BF9D02A68002AF6D087
:1014B000A96903EB8303B1F5004F03EB830316D057
:1014C0001C499200B3FBF2F3A1FB03025209642012
:1014D00000FB12331B013233A1FB0331130103EB79
:1014E00051139BB2A3600020DAE7039BDBE71148AE
:1014F0005200B3FBF2F3A0FB03125109642202FB7A
:101500001133DB003233A0FB0323C3F34F1303F08B
:1015100007025B0002EB011203F4F87313449BB261
:10152000A3600020BCE700BF001001400044004061
:10153000001401401F85EB5130B5B0F9084085B06B
:10154000842C024614BF0334002403AD0B464068CC
:101550001168128ACDE9004500F050FC01280CBF4B
:101560000398002005B030BD08B5002808BF012051
:1015700000F04CFF002008BD00F108034FF0FF31E0
:101580000022816002604360C0E90333704700BFFE
:1015900000230361704700BF4368026810B49C6871
:1015A0008C609C684B600132616099605DF8044B0F
:1015B00008610260704700BF30B40D686B1C11D029
:1015C00000F1080200E01A4653681C68AC42FAD9E0
:1015D00004684B60013499608A605160086104605E
:1015E00030BC704702695368F2E700BF4268816807
:1015F000036910B4916081685C684A601A6884422B
:1016000008BF5960013A002101611A6018685DF84D
:10161000044B704770B5054601F00CFA95F845404B
:1016200064B2002C16DD6B6AA3B105F1240605E057
:10163000013CE3B25CB26BB16B6A5BB1304600F067
:1016400091FF0028F4D0013C01F016F8E3B25CB23F
:10165000002BF1D1FF2385F8453001F00DFA01F0A0
:10166000E9F995F8444064B2002C16DD2B69A3B16A
:1016700005F1100605E0013CE3B25CB26BB12B69E9
:101680005BB1304600F06EFF0028F4D0013C00F062
:10169000F3FFE3B25CB2002BF1D1FF2385F84430B5
:1016A000BDE8704001F0E8B940B94FF0500383F352
:1016B0001188BFF36F8FBFF34F8FFEE770B50646FB
:1016C0000D4651B101FB00F0483001F025FB044606
:1016D00058B300F14803036005E0482001F01CFB0B
:1016E000044610B32460C4E90F6501F0A3F9D4E9FE
:1016F0000F132268A26001FB03F1CB1A13440020F0
:101700000A44FF21A063E36084F84410626084F817
:10171000451004F11000FFF72FFF04F12400FFF73C
:101720002BFF01F0A9F9204670BD0024204670BDB2
:101730002DE9F04F85B00192002800F025810029A5
:1017400000F01581022B0BD1C26B012A08D04FF09B
:10175000500383F31188BFF36F8FBFF34F8FFEE702
:1017600004461F460E4600F08FFF002840F0FC8024
:10177000019B43B14FF0500383F31188BFF36F8F88
:10178000BFF34F8FFEE79A4601F054F9A26BE36B6B
:10179000DFF8BC929A424FF0000875D3022F00F098
:1017A000FC80019D002D00F04E81BAF1000F02D1A6
:1017B00002A800F015FF01F05FF900F00BFD01F049
:1017C00039F994F84430FF2B08BF84F8448094F82A
:1017D0004530FF2B08BF84F8458001F04DF901A981
:1017E00002A800F007FF002840F0268101F022F94E
:1017F000A26BE36B9A426AD001F03EF901F01AF94C
:1018000094F845506DB2002D11DD636A7BB104F18F
:10181000240A01E0636A53B1504600F0A3FE08B108
:1018200000F02AFF013DEBB25DB2002BF2D1FF23A5
:1018300084F8453001F020F901F0FCF894F84450A8
:101840006DB2002D11DD23697BB104F1100A01E0B6
:10185000236953B1504600F085FE08B100F00CFF3B
:10186000013DEBB25DB2002BF2D1FF2384F844308E
:1018700001F002F900F04EFD01F0DCF8A26BE36B21
:101880009A424FF0010A89D2226CA56B002A00F01F
:1018900087803146002F40F0BB80A06802F002F93B
:1018A000A368216C62680B44934205F10105A360B3
:1018B00079D3A563636A2268A260002B77D004F114
:1018C000240000F04FFE002840F082806FE004F119
:1018D000100A01F0D1F85046019900F0F3FD01F033
:1018E000A9F894F845506DB2002D11DD636A7BB103
:1018F00004F1240B01E0636A53B1584600F032FE54
:1019000008B100F0B9FE013DEBB25DB2002BF2D19F
:10191000FF2384F8453001F0AFF801F08BF894F81C
:1019200044506DB2002D0ADC0CE0504600F01AFE67
:1019300008B100F0A1FE013DEBB25DB213B1236925
:10194000002BF2D1FF2384F8443001F095F800F029
:10195000E1FC002890D14FF08053C9F80030BFF36C
:101960004F8FBFF36F8F87E74FF0000A0CE7026CD1
:10197000002A3FF4E7AE4FF0500383F31188BFF322
:101980006F8FBFF34F8FFEE74FF0500383F3118843
:10199000BFF36F8FBFF34F8FFEE7226CA56B02BBC7
:1019A000266801354EB1A563636A002B87D101F02B
:1019B00063F8012005B0BDE8F08F606800F074FEA8
:1019C000A563636A6660002B7FF479AF0028EED0D0
:1019D0001F4B4FF080521A60BFF34F8FBFF36F8FD2
:1019E000E5E73146E06802F05DF8236CE2682168C3
:1019F0005B421A449142E26016D962681344E36084
:101A0000022F11D00135A563636A002BCFD056E7B2
:101A1000E06802F047F8236CE26821685B421A44F0
:101A20008A42E260ECD2E8E7002DBCD10123A36337
:101A3000636A002BBBD042E72046FFF7EBFD00F0C6
:101A400069FC0020B6E701F017F82846B2E700BFAE
:101A500004ED00E02DE9F04784B00192002800F089
:101A60004281002900F0328104460F4600F00CFE4E
:101A700050B9019B43B14FF0500383F31188BFF37A
:101A80006F8FBFF34F8FFEE700F0D4FFA56B002DE3
:101A900040F0BA80019B002B6AD002A800F0A0FDA4
:101AA000DFF87492A84604F1240600F0E5FF00F088
:101AB00091FB00F0BFFF94F84430FF2B08BF84F87F
:101AC000448094F84530FF2B08BF84F8458000F02F
:101AD000D3FF01A902A800F08DFD00284ED100F02F
:101AE000A9FFA36B002B00F0A78000F0C5FF00F05A
:101AF000A1FF94F845506DB2002D0ADC0CE0304691
:101B000000F030FD08B100F0B7FD013DEBB25DB271
:101B100013B1636A002BF2D1FF2384F8453000F043
:101B2000ABFF00F087FF94F844506DB2002D10DD3C
:101B3000236973B104F1100A504600F013FD08B197
:101B400000F09AFD013DEBB25DB213B12369002BA9
:101B5000F2D1FF2384F8443000F08EFF00F0DAFB6E
:101B600000F068FFA56B002D4ED1019B002B9CD18E
:101B700000F082FF002004B0BDE8F08700F05AFFBB
:101B800094F845506DB2002D0ADC0CE0304600F0B0
:101B9000E9FC08B100F070FD013DEBB25DB213B19C
:101BA000636A002BF2D1FF2384F8453000F064FF14
:101BB00000F040FF94F844506DB2002D11DD236910
:101BC0007BB104F1100A01E0236953B1504600F0E3
:101BD000C9FC08B100F050FD013DEBB25DB2002B35
:101BE000F2D1FF2384F8443000F046FF00F092FB6E
:101BF00000F020FFA36B002BBAD000F03DFF00F0F7
:101C000019FFA56B002DB0D0226C52B1E16863685A
:101C100011449942E16024BF2168E160384601F037
:101C200041FF013DA5632369002B65D100F024FF2E
:101C3000012004B0BDE8F08700F01EFF0199304696
:101C400000F040FC00F0F6FE94F845506DB2002D17
:101C50000ADC0CE0304600F085FC08B100F00CFD19
:101C6000013DEBB25DB213B1636A002BF2D1FF23E9
:101C700084F8453000F000FF00F0DCFE94F844509A
:101C80006DB2002D10DD236973B104F1100A5046C6
:101C900000F068FC08B100F0EFFC013DEBB25DB272
:101CA00013B12369002BF2D1FF2384F8443000F0F4
:101CB000E3FE00F02FFB0028A1D14FF08053C9F8BC
:101CC0000030BFF34F8FBFF36F8F98E7036C002B8B
:101CD0003FF4CAAE4FF0500383F31188BFF36F8F08
:101CE000BFF34F8FFEE74FF0500383F31188BFF32C
:101CF0006F8FBFF34F8FFEE704F1100000F032FC4E
:101D0000002893D0044B4FF080521A60BFF34F8FDE
:101D1000BFF36F8F8AE700BF04ED00E080B5134C7E
:101D2000134F4FF0805614E000F084FE2369DD6805
:101D3000281DFFF75BFCA369013BA3612368013BFE
:101D4000236000F099FE286B01F062F8284601F04C
:101D50005FF82368002BE7D1E369012BF9D93E60D6
:101D6000BFF34F8FBFF36F8FF3E700BFA0020020D8
:101D700004ED00E0F8B51F4CD4F8A850D4F8AC300E
:101D80000646181D0F46FFF731FC50B9D4F8AC20B9
:101D9000D4F8B030D16A01228A4023EA0203C4F8A1
:101DA000B030731C1BD0D4F8AC30AD195D600DD2CF
:101DB000D4F8CC00D4F8AC100431FFF7FDFBD4F814
:101DC000D030AB4288BFC4F8D050F8BDD4F8C800BA
:101DD000D4F8AC10BDE8F8400431FFF7EDBB002F9C
:101DE000E1D0D4F8AC1004480431BDE8F840FFF766
:101DF000D3BB00BFA0020020540300202DE9F84F00
:101E00004FEA820A804650460D4699460B9F00F0E5
:101E100083FF002800F003810646542000F07CFF79
:101E20000446002800F0CE8006632B7880F834301A
:101E3000AAF1040A2B78564426F0070A002B4DD04D
:101E40006B7880F835306B78002B47D0AB7880F812
:101E50003630AB78002B41D0EB7880F83730EB7818
:101E6000002B3BD02B7980F838302B79002B35D0E4
:101E70006B7980F839306B79002B2FD0AB7980F8F3
:101E80003A30AB7953B3EB7980F83B30EB792BB335
:101E90002B7A80F83C302B7A03B36B7A80F83D3094
:101EA0006B7ADBB1AB7A80F83E30AB7AB3B1EB7AC8
:101EB00080F83F30EB7A8BB12B7B80F840302B7B66
:101EC00063B16B7B80F841306B7B3BB1AB7B80F8BF
:101ED0004230AB7B13B1EB7B80F843300A9D062D7B
:101EE00028BF06254FF0000B261DE56265643046CD
:101EF00084F843B0C4F848B0FFF74AFBC5F10705C2
:101F000004F11800FFF744FBC4F84CB0A56124614C
:101F100084F850B064624A464146504600F05EFD87
:101F2000206007B13C603F4D00F084FDAB69013398
:101F3000AB61D5F8AC30002B3BD0D5F81021E36A6B
:101F40007AB305F11C08D5F8B020012707FA03FC85
:101F500003EB830308EB83004CEA0203D5F814215A
:101F6000C5F8B0303A443146C5F81421FFF714FBE8
:101F700000F082FDD5F8103183B1D5F8AC20E36ACA
:101F8000D26A9A420AD2284B4FF080521A60BFF3AD
:101F90004F8FBFF36F8F3846BDE8F88F3846BDE8E6
:101FA000F88FD5F8AC20D26A9A4298BFC5F8AC40F9
:101FB000C7E7C5F8AC40AB69012B0AD0E36A05F16D
:101FC0001C08C0E7304600F023FF4FF0FF30BDE8AB
:101FD000F88F05F11C08474605F1A8093846143763
:101FE000FFF7CAFA4F45F9D1104F384607F11409E7
:101FF000FFF7C2FA4846FFF7BFFA07F12800FFF7DC
:10200000BBFAA7F1D000FFF7B7FAA7F12000FFF75E
:10201000B3FAC5F8CC70E36AC5F8C89093E74FF0FF
:10202000FF30BCE7A002002004ED00E074030020B4
:102030002DE9F8434FF4007000F06EFE002800F028
:102040008E800646542000F067FE0546002800F00A
:10205000838000245A4B4363071D066380F8384091
:1020600080F84340C462C0E911443846FFF790FA53
:1020700006F5FE7605F11800FFF78AFA26F0070646
:102080000723EC642246AB6185F850404D492D6131
:1020900030466D6200F0A2FC4B4C2860C4F8205121
:1020A00000F0C8FCA3690133A361D4F8AC30002B65
:1020B00049D0D4F81031E86A33B9D4F8AC30DB6ACF
:1020C000834298BFC4F8AC5004F11C06D4F8B0C0E9
:1020D000D4F814310122824000EB8000013342EA3F
:1020E0000C02394606EB8000C4F81431C4F8B02065
:1020F000FFF752FA00F0C0FCD4F810316BB1D4F8FD
:10210000AC20EB6AD26A9A4207D2304B4FF0805231
:102110001A60BFF34F8FBFF36F8F4FF0500383F3FD
:102120001188BFF36F8FBFF34F8F00234FF0FF3144
:102130000122C4F8D010C4F81021C4F8A830BDE8BA
:10214000F84300F013BDC4F8AC50A369012B0FD0C5
:10215000E86A04F11C06B9E7304600F059FE4FF07A
:10216000500383F31188BFF36F8FBFF34F8FFEE7E8
:1021700004F11C06B04604F1A809404608F1140811
:10218000FFF7FAF9C145F8D1DFF84480404608F17D
:102190001409FFF7F1F94846FFF7EEF908F12800B6
:1021A000FFF7EAF9A8F1D000FFF7E6F9A8F120005F
:1021B000FFF7E2F9C4F8CC80E86AC4F8C89085E774
:1021C00049444C451D1D0008A002002004ED00E01C
:1021D00074030020034AD2F818310133C2F81831D1
:1021E000704700BFA00200202DE9F047474CD4F80B
:1021F0001831B3B9D4F8A8600136C4F8A860F6B1B4
:10220000D4F8D030B34228D90025D4F8AC30DB6AFA
:1022100003EB830304EB8303DB69022B28BF012557
:1022200005E0D4F828310133C4F828310025D4F86A
:102230001C31002B0CBF28460120BDE8F087D4F8E4
:10224000CC301B68002B43D04FF0500383F3118830
:10225000BFF36F8FBFF34F8FFEE7DFF8B4A0002509
:102260004FF0010927E0D4F8CC30DB68DF687B68E9
:1022700007F104089E42404627D3FFF7B7F9BB6A2F
:1022800007F118000BB1FFF7B1F9F86AD4F8B020E4
:1022900009FA00F300EB8000134341460AEB80008B
:1022A000C4F8B030FFF778F9D4F8AC30FA6ADB6ADA
:1022B0009A4228BF0125D4F8CC301B68002BD2D11C
:1022C0004FF0FF33C4F8D0309FE7C4F8D0309CE71C
:1022D000D4F8CC30D4F8C820C4F8CC20C4F8C83026
:1022E000D4F824310133C4F82431D4F8CC301B683D
:1022F00023B94FF0FF33C4F8D03081E7D4F8CC30A5
:10230000DB68DB685B68C4F8D03079E7A0020020A6
:10231000BC0200202DE9F0413A4CD4F8183143B901
:102320004FF0500383F31188BFF36F8FBFF34F8FCC
:10233000FEE700F07FFBD4F81831013BC4F81831F8
:10234000D4F818515DBBA3694BB3012604F11C07F7
:10235000D4F8FC304BB3D4F80831DD6805F104083B
:1023600005F11800FFF742F94046FFF73FF9E86A28
:10237000D4F8B02006FA00F300EB80001343414686
:1023800007EB8000C4F8B030FFF706F9D4F8AC30A2
:10239000EA6ADB6A9A42DBD3C4F81C61D8E70024FE
:1023A00000F06AFB2046BDE8F0813DB1D4F8CC30A6
:1023B0001B68F3B94FF0FF33C4F8D030D4F828517C
:1023C0004DB10126FFF710FF08B1C4F81C61013DB3
:1023D000F8D1C4F82851D4F81C31002BDFD00A4BB7
:1023E0004FF080521A60BFF34F8FBFF36F8F0124FD
:1023F000D6E7D4F8CC30DB68DB685B68C4F8D03053
:10240000DCE700BFA002002004ED00E008B5B0B199
:102410000F4BD3F8181141B14FF0500383F31188DB
:10242000BFF36F8FBFF34F8FFEE7D3F81821013250
:10243000C3F81821FFF79EFCFFF76CFF38B9054B76
:102440004FF080521A60BFF34F8FBFF36F8F08BDFC
:10245000A002002004ED00E0194AD2F81831E3B9D7
:1024600010B4C2F81C31D2F8B030B3FA83F3DBB247
:10247000C3F11F0303EB830189005418E06980B1A5
:10248000206A1144406820622431884212D0C36817
:10249000C2F8AC305DF8044B70470123C2F81C3120
:1024A00070474FF0500383F31188BFF36F8FBFF372
:1024B0004F8FFEE7142101FB032340681862E6E713
:1024C000A002002040B94FF0500383F31188BFF3FE
:1024D0006F8FBFF34F8FFEE770B5204C0D46D4F8D9
:1024E000AC101831FFF768F8D4F8A860D4F8AC0045
:1024F0000430FFF77BF850B9D4F8AC20D4F8B030F2
:10250000D16A01228A4023EA0203C4F8B0306B1C6E
:1025100012D0D4F8AC30AD195D6015D2D4F8CC002F
:10252000D4F8AC100431FFF747F8D4F8D0309D420E
:1025300038BFC4F8D05070BDD4F8AC10084804318E
:10254000BDE87040FFF728B8D4F8C800D4F8AC1044
:10255000BDE870400431FFF72FB800BFA002002093
:1025600054030020F8B5C368DD6845B305F11806CB
:102570001A4C3046FFF73AF8D4F8183143BB2E1DF9
:102580003046FFF733F8E86AD4F8B070012383408F
:1025900004F11C0200EB80003B43314602EB80005B
:1025A000C4F8B030FEF7F8FFD4F8AC30EA6ADB6A62
:1025B0009A4286BF0120C4F81C010020F8BD4FF0EC
:1025C000500383F31188BFF36F8FBFF34F8FFEE784
:1025D000314604F1FC00FEF7DFFFE5E7A002002032
:1025E000034BD3F82421D3F8A830C0E90023704767
:1025F000A0020020F8B530B3E1B10D46044600F06A
:1026000019FA1C4A2B686668D2F8A8005F1CA0EB78
:10261000060121D0D2F824C12768674501D086423F
:1026200026D98B421AD800232B60012500F024FA0A
:102630002846F8BD4FF0500383F31188BFF36F8F26
:10264000BFF34F8FFEE74FF0500383F31188BFF3C2
:102650006F8FBFF34F8FFEE70025E7E75B1AD2F8D5
:102660002411D2F8A8202B600025C4E90012DDE770
:102670000125DBE7A0020020024B0122C3F81C2148
:10268000704700BFA0020020064BD3F8102132B1E2
:10269000D3F81831002B0CBF022000207047012016
:1026A000704700BFA002002070B1F8B5274DD5F8E3
:1026B000AC3083420AD04FF0500383F31188BFF34C
:1026C0006F8FBFF34F8FFEE7002070479B6C43B9BD
:1026D0004FF0500383F31188BFF36F8FBFF34F8F19
:1026E000FEE7C16A426C013B9142836400D00BB1AA
:1026F0000020F8BD071D04463846FEF777FF68B98D
:10270000E16A142303FB0153DB693BB9D5F8B03010
:1027100001228A4023EA0203C5F8B030636C0C4AF8
:10272000D5F8B0C0E3620126142000FB032006FAAE
:1027300003F2C3F1070342EA0C023946A361C5F86C
:10274000B020FEF729FF3046F8BD00BFA0020020F0
:10275000BC0200202DE9F8433D4C1D4680460F4643
:10276000164600F067F9D4F8AC3093F85030022BDD
:102770000CD0D4F8AC20D36C23EA0803D364D4F88B
:10278000AC304FF0010883F85080CDB900F074F9F7
:1027900000F050F91EB1D4F8AC30DB6C3360D4F8E3
:1027A000AC3093F85030022B3BD00025D4F8AC303D
:1027B000002283F8502000F05FF92846BDE8F88336
:1027C000D4F8A890D4F8AC000430FEF70FFF50B94D
:1027D000D4F8AC20D4F8B030D26A08FA02F823EA70
:1027E0000803C4F8B0306B1C23D0D4F8AC3015EB20
:1027F00009055D6024D2D4F8CC00D4F8AC100431C3
:10280000FEF7DAFED4F8D0309D4238BFC4F8D0507D
:10281000104B4FF080521A60BFF34F8FBFF36F8F92
:10282000B4E7D4F8AC20D36C23EA0707D7640125BA
:10283000BCE7D4F8AC1008480431FEF7ADFEE7E77A
:10284000D4F8C800D4F8AC100431FEF7B5FEDFE7C9
:10285000A002002004ED00E0540300202DE9F8431D
:10286000DDF82080F8B104461D461646894600F082
:1028700001FAEFF311874FF0500383F31188BFF390
:102880006F8FBFF34F8F0DB1E36C2B6094F85050F6
:102890000222731EEDB284F85020032B10D8DFE81B
:1028A00003F04E4A0D0B4FF0500383F31188BFF332
:1028B0006F8FBFF34F8FFEE7022D08D0C4F84C9006
:1028C000012D06D0012087F31188BDE8F883002090
:1028D000F9E7A36A43B14FF0500383F31188BFF3C4
:1028E0006F8FBFF34F8FFEE71C4ED6F8183173BBC6
:1028F00004F104094846FEF779FEE26AD6F8B0C052
:1029000005FA02F306F11C00142543EA0C034946BC
:1029100005FB0200C6F8B030FEF73EFED6F8AC303C
:10292000E26ADB6A9A42CDD90120B8F1000F0BD0E0
:10293000C8F80000C7E7E36C0133E364C0E7E36C69
:1029400043EA0903E364BBE7C6F81C01BBE704F1F3
:10295000180106F1FC00FEF71FFEDFE7A0020020D1
:102960000E4B1B6882B000220133019208D04FF059
:10297000500383F31188BFF36F8FBFF34F8FFEE7D0
:102980004FF0500383F31188BFF36F8FBFF34F8F66
:10299000019B002BFCD002B0704700BF0800002054
:1029A00008480068006880F308884FF0000080F352
:1029B000148862B661B6BFF34F8FBFF36F8F00DF2D
:1029C00000BF000008ED00E0DFF80C00016841F4F2
:1029D000700101607047000088ED00E030B421F024
:1029E00001014FF08075074C40F80C4C6FF002036A
:1029F00040F8202C40E9021540F8243C30BC443813
:102A0000704700BF612900080000000000000000BE
:102A1000074B19680868B0E8F04F80F30988BFF3E6
:102A20006F8F4FF0000080F311887047AFF3008084
:102A30004C0300204FF0500383F31188BFF36F8FD6
:102A4000BFF34F8F0A4A13680133012B136000D084
:102A50007047084B1B6813F0FF0FF9D04FF050037D
:102A600083F31188BFF36F8FBFF34F8FFEE700BF73
:102A70000800002004ED00E0084A136843B94FF055
:102A8000500383F31188BFF36F8FBFF34F8FFEE7BF
:102A9000013B13600BB983F31188704708000020D5
:102AA000EFF30980BFF36F8F154B1A681EF0100FFC
:102AB00008BF20ED108A20E9F04F10602DE90900D1
:102AC0004FF0500080F31188BFF34F8FBFF36F8F2B
:102AD000FFF7C2FC4FF0000080F3118809BC1968B1
:102AE0000868B0E8F04F1EF0100F08BFB0EC108A75
:102AF00080F30988BFF36F8F704700BFAFF300808A
:102B00004C03002008B54FF0500383F31188BFF346
:102B10006F8FBFF34F8FFFF767FB18B1034B4FF079
:102B200080521A60002383F3118808BD04ED00E091
:102B300030B4094A094D0A4B0A4C0B480021116078
:102B400029601B68A4FB03139B09013B0721036059
:102B500030BC1160704700BF10E000E018E000E0FA
:102B6000B0000020D34D621014E000E0394B3A4A27
:102B7000196891423FD01A68384B9A4232D010B54A
:102B8000374B38491A7882B0FF20D2B201921870C0
:102B90001B78DBB28DF803309DF803309DF80320DD
:102BA000072003F05003486010060B7011D5062370
:102BB00000E003469DF803205200D2B28DF80320B6
:102BC0009DF80320120603F1FF30F2D4032B4B6073
:102BD0001AD04FF0500383F31188BFF36F8FBFF308
:102BE0004F8FFEE74FF0500383F31188BFF36F8FD1
:102BF000BFF34F8FFEE74FF0500383F31188BFF30D
:102C00006F8FBFF34F8FFEE70198154C164AC0B285
:102C10002070106840F47000106010681B0240F0D3
:102C20007040106003F4E0634B60FFF781FF0F4BCF
:102C300000241C60FFF7C8FE0D4A136843F04043B0
:102C40001360FFF7ADFEFFF707FCFFF789FE204694
:102C500002B010BD00ED00E071C20F4170C20F4123
:102C600000E400E0CC03002020ED00E0080000209C
:102C700034EF00E0EFF305820F2A11D8104B114911
:102C80005A680B6803F4E063934208D94FF050038D
:102C900083F31188BFF36F8FBFF34F8FFEE7704749
:102CA0000949074B525C19789142E8D94FF050031B
:102CB00083F31188BFF36F8FBFF34F8FFEE700BF21
:102CC000CC0300200CED00E0F0E300E0114B30B449
:102CD0001D461A68824201D21346FAE75C68191948
:102CE000884203D14168214459601846446801195B
:102CF0008A4208D1A9688A4205D0D2E9002121443C
:102D00000260416000E00260984218BF186030BC69
:102D1000704700BFD4030020F8B53A4D0446FFF7D2
:102D200059FAAA68002A53D0EE6834424BD1002CDD
:102D300049D004F1080358071CBF23F007030833E8
:102D4000002B40D06F699F423DD32C682D4806E090
:102D5000D4F800C0BCF1000F04D02046644661687E
:102D60009942F5D394422ED022680260CA1A102AE2
:102D700010D9E018410708D04FF0500383F31188B1
:102D8000BFF36F8FBFF34F8FFEE742606360FFF7C3
:102D90009DFF61682A697F1A002331439742C4E985
:102DA000003104F1080438BF2F616F61FFF7B2FAF8
:102DB00063070BD04FF0500383F31188BFF36F8F7D
:102DC000BFF34F8FFEE7FFF7A5FA00242046F8BDBA
:102DD0000D4B0E4A5E0718BF073322F0070218BFDB
:102DE00023F007032B6018460027D31A4FF0004644
:102DF000C5E90172C5E90433C2E90077EE60C0E9B4
:102E0000002392E7D4030020EC030020E43F0020DD
:102E1000D8B138B5174D50F8043CEA68134208D1D0
:102E20004FF0500383F31188BFF36F8FBFF34F8FC1
:102E3000FEE750F8081C49B14FF0500383F31188A6
:102E4000BFF36F8FBFF34F8FFEE77047044623EA4F
:102E5000020340F8043CFFF7BDF96A6954F8043CEA
:102E6000A4F1080013446B61FFF730FFBDE8384060
:102E7000FFF750BAD403002008B50120FEF774FB19
:102E8000FBE700BF30B5074D0FCD87B001AC0FC4D5
:102E90002B682360002101A8FEF74EFB024B18604F
:102EA00007B030BDA44C0008204100202DE9F047B8
:102EB00000248CB0CDE90544CDE90844CDE90A44AD
:102EC000854B0794196B854F854A41F08001196342
:102ED000196B01F0800103910399196B41F0040112
:102EE0001963196B01F0040102910299196B41F009
:102EF00002011963196B01F0020101910199196B2B
:102F000041F0010119631B6B03F0010300934FF4BF
:102F100080230099BB61D3680F2191FAA1F00226AA
:102F2000B0FA80F006FA00F023F00F030343D360F9
:102F3000D068F02393FAA3F5B5FA85F506FA05F5FE
:102F400020F0F0002843D060906891FAA1F10125AB
:102F5000B1FA81F120F00F0005FA01F1014391600F
:102F6000916893FAA3F3B3FA83F321F0F00105FA21
:102F700003F30B4393604FF0100A04A88DF814502C
:102F80008DF81660CDF810A04FF02009FEF70CF96F
:102F90000DEB0A008DF814508DF815408DF8166071
:102FA000CDF81090FEF700F90DEB0A0004958DF8AE
:102FB00014508DF815408DF81660FEF7F5F80DEBFE
:102FC0000A0004968DF814508DF815408DF816609F
:102FD000FEF7EAF8434BD9689AFAAAF2B2FA82F2FB
:102FE000AA404FF0030808FA02F221EA02029AFA14
:102FF000AAF1DA60D96899FAA9F2B2FA82F2AA4083
:1030000008FA02F221EA020299FAA9F1DA60F968F3
:1030100095FAA5F2B2FA82F2AA4008FA02F221EA7F
:10302000020295FAA5F1FA60F96896FAA6F2B2FAE8
:1030300082F2AA4008FA02F221EA020296FAA6F106
:10304000FA6019689AFAAAF2B2FA82F2AA4008FA69
:1030500002F221EA02029AFAAAFA1A60196899FAA7
:10306000A9F2B2FA82F2AA4008FA02F221EA0202B6
:1030700099FAA9F91A603A6895FAA5F3B3FA83F3B5
:10308000AB4008FA03F322EA030395FAA5F23B608A
:103090003A6896FAA6F3B3FA83F3AB4008FA03F35F
:1030A00022EA030396FAA6F604223B6006A93846F4
:1030B0000692CDE90754CDE90944FEF7CBF84FF469
:1030C000004306A90848CDF81C800A940693FEF731
:1030D000C1F80CB0BDE8F08700380240000402409F
:1030E0000038014000080240000002400C4B0D4A2D
:1030F00010B54FF480410C4C1A60184600225C60F9
:103100001961C3E90222C3E90522C3E90722FDF7D9
:10311000A1FB00B910BDBDE8104000F0BFBA00BF70
:103120002441002000540040A086010070B50268D0
:10313000184B88B000249A42CDE90344CDE90544F8
:10314000079401D008B070BD134D01942B6B134848
:1031500043F002032B632B6B03F002030193C023A4
:10316000039312220123049205930322042303A94B
:10317000CDE90623019EFDF78DFA02942B6C43F4F2
:1031800000132B642B6C03F400130293029B08B012
:1031900070BD00BF005400400038024000040240EF
:1031A00000B583B002AC094B44F8043D084D2868D3
:1031B000214600234FF0FF32FEF7BAFA00221146F3
:1031C00010464FF0FF33FFF7C5FAF0E70C00002080
:1031D000EC3F002000B50D4E0D4C0FCE87B001AD79
:1031E0000FC5336825F8023B1B0C2B7000221146DB
:1031F00010464FF0FF33FFF7ADFA00234FF0FF32D8
:1032000001A92068FEF794FAF0E700BFE84C000837
:10321000EC3F002030B50F4D0F4C83B0002211461B
:1032200010464FF0FF33FFF795FA2420FFF774FDA7
:103230000190FFF7FFFB2146019800F08BFCFFF7A0
:103240001BFC00234FF0FF3201A96868FEF770FAFB
:10325000E4E700BFEC3F0020640000202DE9F04FC0
:103260009DB0344DDFF8D4B0DFF8D4A00DF12209C1
:103270000DF11E0807AF0FAC14E0BEE80F00ACE87C
:103280000F009EE80700ACE803000023ACF8002024
:103290000CA94FF0FF3228680C94FEF749FA099800
:1032A000FFF7B6FD4FF0FF3209A96868FEF7D2FBC1
:1032B00008AB01930DF11A0300930DAA06AB594612
:1032C00009980297CDE9038900F018FC06B232464E
:1032D000514620460A9400F0F1FB00234FF0FF32E4
:1032E0000AA92868FEF724FABDF81830BDF81A00BC
:1032F000BDF82010BDF91C20DFF848E003440B4462
:10330000BDF81E1013440B44BDF922109BB28B4232
:10331000A446B2D1072EB0D107490B94204600F045
:10332000CDFB00234FF0FF320BA92868FEF700FA0F
:10333000B5E700BFEC3F0020384D0008FC4C00080A
:10334000184D0008544D000880B582B002AF00232C
:1033500047F8043DDFF84C80114CD8F800004FF0DE
:10336000FF323946FEF776FB019E3046FDF7B8F88E
:103370003546AB1B98420BD923681A06FCD515F8C5
:10338000013B63603046FDF7ABF8AB1B9842F3D8C6
:1033900023685B06E1D423685B06F9D5DDE700BF4F
:1033A00000140140EC3F002030B5002495B0CDE979
:1033B0000A44CDE90C44CDE90444CDE906441C4A55
:1033C00001940394116C1B4B41F080511164126CF9
:1033D00002F080520192019A02941A6842F440422B
:1033E0001A601B6803F4404302934FF480320123B8
:1033F00002254FF480010298089309920423542275
:1034000008A80F911093139311920E951295FDF742
:10341000D9FA0F224FF4805303A82946CDE904546A
:10342000079403920693FDF7BDFC15B030BD00BFB5
:10343000003802400070004070B506460546304630
:10344000FDF74EF8AB1B9842094C0BD923681A06BE
:10345000FCD515F8013B63603046FDF741F8AB1B26
:103460009842F3D8024A13685B06FCD570BD00BFD2
:103470000014014000B53B4D3B4E83B0FDF788F88A
:10348000FFF792FFFFF712FDFFF730FE00F046FA5C
:1034900000F0D4F90FCD06F108040FC40FCD0FC40E
:1034A0002B68238006F10800FFF7C6FFFFF7EAFC50
:1034B000002204210A20FEF7F7F8002270600421A0
:1034C0001E20FEF7F1F873683060002B3DD0002815
:1034D0003BD006F582720123CDE90032234924480E
:1034E00000234FF4FA72FEF789FC022406F5847378
:1034F000CDE900434FF4FA7200231E491E48FEF73F
:103500007DFC06F58673CDE900434FF4FA72002383
:103510001A491B48FEF772FC06F58873CDE9004393
:103520004FF4FA7200231749174806F58A76FEF71A
:1035300065FC00234FF4FA7214491548CDE90046A2
:10354000FEF75CFCFEF774FDFEE7124C124D0FCC4B
:103550000FC50FCC0FC52846236820F82039FFF788
:103560006BFFF1E7704D0008EC3F0020944D000820
:10357000A1310008A44D000815320008B44D000820
:103580005D320008C84D000849330008DC4D0008D2
:10359000D5310008F04D0008F43F002030B585B06B
:1035A0001C4C1D4A94F818011C4D002303935168CC
:1035B000421CC9B2D2B22A29295484F8182103D056
:1035C000232A0ED805B030BD232AF9D103AA0092D0
:1035D000D4F8080184F818311A461946FFF73EF965
:1035E0000BE0002503AA0092D4F8140184F81851C6
:1035F0002B462A462946FFF731F9039B002BE1D0E1
:10360000074B4FF080521A60BFF34F8FBFF36F8F9D
:1036100005B030BDEC3F0020001001407841002093
:1036200004ED00E030B585B00023134A134903933D
:10363000526891F81901124DD2B2441C0D2A2A5435
:1036400081F8194101D005B030BD03AA81F81931C4
:10365000D1F80401009219461A46FFF7FFF8039BC0
:10366000002BF0D0074B4FF080521A60BFF34F8F02
:10367000BFF36F8F05B030BD00140140EC3F002058
:10368000D841002004ED00E00268034B9A4200D0CC
:103690007047FCF797BF00BF00000140704700BFB4
:1036A00082B00E4B00220092596C41F48041596463
:1036B000596C01F48041009100990192196C41F01C
:1036C000805119641B6C03F080530193019B0F21FF
:1036D0006FF0010002B0FCF799BF00BF0038024054
:1036E00030B5014689B000221920FCF78FFF192060
:1036F000FCF7C2FF0025154B02955A6C144C42F0A2
:1037000001025A645B6C03F0010301A9029303A850
:10371000029BFDF701FCFDF7EFFB0E4B0E49256107
:10372000A3FB00239B0C013B40F2E7322046C4E997
:1037300001352160E260FDF713FC10B1012009B0F2
:1037400030BD2046FDF76AFC09B030BD00380240AC
:10375000EC41002083DE1B4300000140704700BFA6
:10376000FEE700BFFEE700BFFEE700BFFEE700BFC9
:10377000704700BF0148FDF769BC00BFEC41002065
:10378000044B1A68920602D5DB689B0600D470478A
:10379000FFF704BF00100140044B1A68920602D5DF
:1037A000DB689B0600D47047FFF73CBF0014014064
:1037B0000C4A08B5136833B118446946884208D8E2
:1037C0001060184608BD084B1360184469468842CB
:1037D000F6D900F03DF90C2303604FF0FF33184693
:1037E00008BD00BF0C410020304200201049114BA1
:1037F000D1F8882042F4700210B4C1F888201A6809
:103800000D4C002042F001021A6098601A6822F004
:10381000847222F480321A605C601A684FF000648F
:1038200022F480221A60D8608C605DF8044B7047E7
:1038300000ED00E0003802401030002430B50024D4
:1038400091B0CDE90944CDE90B44CDE90D442E4BAF
:103850000F9406945A6C2D4842F010025A645A6C28
:1038600002F010020292029A1A6B42F001021A63ED
:103870001B6B03F0010301934FF4C0620223032189
:103880000392049301220723059103A9CDE907239D
:10389000019DFDF7DFFC1E4BDB68C3F30223C3F180
:1038A0000702191D042A28BF0422062988BFDC1E2E
:1038B0004FF0FF339340DB4303F00503A340154A69
:1038C000154C1B01DBB2202582F8253309A9556070
:1038D00000230C2220464FF41645CDE90953CDE9CB
:1038E0000B33CDE90E330D92FDF7AAFD236923F4C6
:1038F00090432361636923F02A036361E36843F41F
:103900000053E36011B030BD0038024000000240B7
:1039100000ED00E000E100E00010014030B50024BF
:1039200091B0CDE90944CDE90B44CDE90D442E4BCE
:103930000F9406945A6C2D4842F020025A645A6C37
:1039400002F020020292029A1A6B42F004021A63F9
:103950001B6B03F004030193C02202230321039293
:10396000049301220823059103A9CDE90723019DB2
:10397000FDF770FC1E4BDB68C3F30223C3F10702A3
:10398000191D042A28BF0422062988BFDC1E4FF017
:10399000FF339340DB4303F00503A340154A164C65
:1039A0001B01DBB2802582F8473309A9956000230B
:1039B0000C2220464FF4E135CDE90953CDE90B3314
:1039C000CDE90E330D92FDF73BFD236923F49043BF
:1039D0002361636923F02A036361E36843F40053BE
:1039E000E36011B030BD00BF003802400008024063
:1039F00000ED00E000E100E000140140DFF834D009
:103A0000002103E00C4B5B58435004310B480C4B36
:103A100042189A42F6D30B4A02E0002342F8043BD4
:103A2000094B9A42F9D3FFF7E1FE00F017F8FFF7D0
:103A300021FD704700000220E04F00080000002038
:103A4000840200208402002030420020FEE70000B3
:103A5000014B1868704700BFB400002070B50D4ED0
:103A60000D4CA41BA4100025A54209D10B4E0C4CF3
:103A700001F00CF9A41BA4100025A54205D170BDCE
:103A800056F8253098470135EEE756F82530984727
:103A90000135F2E7D84F0008D84F0008D84F00088A
:103AA000DC4F000810B5431E0A44914200D110BDFE
:103AB00011F8014B03F8014FF7E700000EB400B511
:103AC0009CB01DAB029006906FF000410948079131
:103AD0000491094953F8042B05910068019302A948
:103AE00000F09AF8029B00221A701CB05DF804EBFB
:103AF00003B07047B40000200802FFFF0EB430B5D9
:103B00009CB01FAC4FF4017254F8045BADF8142064
:103B100002900690FCF7E4FC0B4B039007900B938C
:103B20000A48019400230F9314934FF6FF73ADF8E6
:103B300016302A46234602A9006800F0BDF91CB0E1
:103B4000BDE8304003B07047513B0008B40000208E
:103B500000207047034611F8012B03F8012B002ABF
:103B6000F9D170472DE9F0478E689E4282460C4697
:103B70009046994637D88A8912F4906F31D02568DB
:103B800009696F1A6569022305EB450595FBF3F595
:103B900009F101033B449D4238BF1D46530530D512
:103BA000294600F0CBFF064650B90C23CAF8003076
:103BB000A38943F04003A3814FF0FF30BDE8F087B5
:103BC0003A462169FFF76EFFA38923F4906343F01F
:103BD0008003A381266165613E44ED1B2660A560DC
:103BE0004E464E4500D94E4632464146206800F0CA
:103BF0003DFFA3689B1BA36023681E442660002032
:103C0000DCE72A4600F0F4FF06460028E2D12169ED
:103C1000504600F045FFC8E72DE9F04F9DB08046C3
:103C200003938B891D060C4616460FD50B696BB99D
:103C3000402100F083FF2060206128B90C23C8F8E0
:103C400000304FF0FF30C7E0402363610023099349
:103C500020238DF8293030238DF82A304FF0010BC6
:103C600037463D4615F8013B0BB1252B3ED1B7EB4E
:103C7000060A0BD05346324621464046FFF772FFF4
:103C8000013000F0A480099B534409933B78002B3A
:103C900000F09D8000234FF0FF32CDE9052304930F
:103CA00007938DF853301A932F46052217F8011BFE
:103CB0004F48FCF71DFC049BD0B9D90644BF202215
:103CC0008DF853201A0744BF2B228DF853202A78F1
:103CD0002A2A15D0079A2F4600200A25394611F8BE
:103CE000013B303B092B4DD9B8B10FE02F46B8E767
:103CF0003F4A801A0BFA00F0184304903D46D3E780
:103D0000039A111D12680391002A01DB079204E057
:103D1000524243F00203079204933B782E2B0CD1BE
:103D20007B782A2B33D1039B1A1D1B680392002B2F
:103D3000B8BF4FF0FF33023705932E4D3978032279
:103D40002846FCF7D5FB38B14023401B03FA00F0AE
:103D5000049B034301370493397827488DF82810D2
:103D600006227E1CFCF7C4FB002838D0234B13BB73
:103D7000039B073323F0070308330393099B4B444A
:103D800009936DE705FB023201200F46A6E70023E9
:103D90000137059319460A25384610F8012B303AA9
:103DA000092A03D9002BC8D00591C6E705FB0121DC
:103DB00001230746F0E703AB00932246104B04A90A
:103DC0004046AFF30080B0F1FF3F8146D6D1A389D2
:103DD0005B063FF536AF09981DB0BDE8F08F03AB29
:103DE00000932246064B04A9404600F02BFAEAE76E
:103DF000144E00081A4E00081E4E00080000000075
:103E0000653B000838B54B1C144603D14FF0FF3515
:103E1000284638BD938923F020039381636B526851
:103E2000CDB28BB1A36B934208DD23685A1E22608A
:103E300003F8015C636801336360E9E7214600F041
:103E4000B7FD0028F1D0E1E72169236851B199421B
:103E500008D213F8011CA94204D1013B01322360AE
:103E60006260D5E7C4E90F3204F1440363630323BE
:103E7000A363234603F8465F23600123DCE710B504
:103E80000C46496B69B104F14403994201D000F03A
:103E900007FE236C63600020606313B1E36B236053
:103EA00010BD2369236000236360A38943F02003CE
:103EB000A3814FF0FF30F3E72DE9F04FADF5257DFD
:103EC0000DF10C0801930023469347939E4BA29358
:103ED000DFF87C929D4BCDF8208106460C46924639
:103EE000A3930A279AF80030002B00F02A81554648
:103EF00000F09CFD15F801BB5844437813F008030B
:103F00001CD06368002B12DD00F090FD23681A7846
:103F100010444278120701D4AA46E3E7479A0132D7
:103F2000479262680133013A62602360E9E7A39B2C
:103F30002146304698470028E6D0EDE7BBF1250F33
:103F400040F08280459343939AF801302A2B03D1A5
:103F5000102343930AF10205AA4615F8011BA1F1AB
:103F60003002092A22D903227948FCF7C1FA38B174
:103F7000A0EB090301209840439B18434390AA46B5
:103F80009AF80030672B0AF101052BD8652B80F0D9
:103F90009F80472B10D8452B80F09A80002B6CD047
:103FA000252B51D003234993449727E0459B07FBDA
:103FB0000313303B4593CFE75B2B6AD00CD8582BCB
:103FC000F0D1439A42F400724392102244926E2B35
:103FD0008CBF0423032310E0632B65D0642BE1D155
:103FE0004497F4E7702B4BD026D86E2B62D04CD878
:103FF000692BD7D100234493032349936368002B93
:1040000068DD439B590607D400F010FD23681A7839
:1040100010444278120764D4499B022B73DC01AB35
:10402000224643A9304600F01FFA012800F089809B
:1040300002287FF471AF1DE0752BD1D0782BC0D052
:10404000732BAFD10223D8E76368002B0CDD236804
:104050001A785A4575D1013362682360479B013A4B
:1040600001336260479357E7A39B21463046984748
:104070000028ECD04698002859D14FF0FF305CE082
:10408000439A42F0200243929BE70823449304237F
:10409000B3E72946404600F03FFB439B43F0400313
:1040A000439305460123A8E7439B43F04003439312
:1040B0000023A2E74398C3063FF52EAF019B479A22
:1040C000191D01911B68C0074CBF1A801A6023E7B5
:1040D000052392E7A39B214630469847002890D0BD
:1040E000C8E7479A013247926268013A002A626043
:1040F00002DD0133236087E7A39B214630469847C2
:10410000002881D0B6E7042B06DC01AB224643A988
:10411000304600F00DFA88E70E4B002B3FF4FCAE62
:1041200001AB224643A93046AFF300807DE7A38967
:1041300013F0400F18BF4FF0FF300DF5257DBDE89F
:10414000F08F4698F9E700BF053E00087F3E000863
:104150001A4E0008000000002DE9F04791461F4666
:104160008A680B69DDF820809342B8BF1346C9F80E
:10417000003091F8432006460C4612B10133C9F8CD
:1041800000302368990642BFD9F800300233C9F8DD
:104190000030256815F0060507D104F1190AE36817
:1041A000D9F800209B1AAB4228DC94F843302268EF
:1041B000003318BF012392062DD404F1430239467F
:1041C0003046C047013020D02368E568D9F8002088
:1041D00003F00603042B08BFAD1AA36822690CBFC5
:1041E00025EAE57500259342C4BF9B1AED184FF0F0
:1041F00000091A344D451AD1002008E00123524627
:1042000039463046C047013003D14FF0FF30BDE89A
:10421000F0870135C3E7E1185A1C302081F84300CC
:10422000224494F8451082F843100233C5E7012375
:10423000224639463046C0470130E6D009F101092F
:10424000D8E700002DE9F04301F1430C0C46097E4C
:1042500085B06E291746064698460C9A00F0B38042
:1042600022D8632936D00AD8002900F0B98058290D
:1042700000F0838004F1420584F8421032E06429A2
:1042800001D06929F6D120681368050603F10401FD
:104290002AD51B681160002B03DA2D225B4284F8BB
:1042A00043206F480A2239E0732900F09D8008D826
:1042B0006F2920D07029DDD1236843F020032360CB
:1042C00003E0752917D07829D4D1782384F84530B4
:1042D000644855E01368191D1B68116004F142051C
:1042E00084F8423001238CE01B68116010F0400F0D
:1042F00018BF1BB2CFE713682568181D1060280689
:1043000001D51B6802E06806FBD51B8854486F295D
:1043100014BF0A220822002184F843106568A560B2
:10432000002DC0F29580216821F004012160002B4E
:104330003DD1002D40F08E806546082A0BD12368C0
:10434000DB0708D5236962689A42DEBF302305F88F
:10435000013C05F1FF35ACEB05032361CDF800808E
:104360003B4603AA21463046FFF7F6FE01304DD109
:104370004FF0FF3005B0BDE8F083394884F84510B0
:10438000136821681D1D1B6815600A060BD5CA0736
:1043900044BF41F0200121601BB9226822F02002B5
:1043A00022601022B7E74D0648BF9BB2EFE7654693
:1043B000B3FBF2F102FB1133C35C05F8013D0B4680
:1043C0000029F5D1B9E7136825686169181D1060E7
:1043D00028061B6801D5196002E06A06FBD5198022
:1043E000002323616546B9E71368191D11601D6834
:1043F000626800212846FCF77BF808B1401B60602A
:1044000063682361002384F84330A7E723692A46C1
:1044100039463046C0470130AAD023689B0713D4E1
:10442000E068039B9842B8BF1846A3E701234A46B9
:1044300039463046C04701309AD00135E368039AC7
:104440009B1AAB42F2DCEBE7002504F11909F5E712
:10445000002BACD1037884F8423004F142056CE7BC
:10446000254E0008364E00082DE9F04115468A68B1
:1044700080460C4632B98A69002A14BF4FF0FF32D9
:1044800001228A602268D1065FBF1A68111D196077
:1044900017680026A369DBB1012B07D12B6862697D
:1044A0001B78D35CA3B9002E32D106E0022B07D0D3
:1044B000002E2DD1A369012B2AD10120BDE8F08166
:1044C00000F0B4FA2B681B78184443781B07EFD42C
:1044D0002368DA065EBF2B681B783B702A686B681E
:1044E00002F101022A60A26803F1FF3302F1FF32F8
:1044F0006B6006F1010658BF0137A26042B1002B84
:10450000C8DCD4F880312946404698470028C1D0FD
:10451000236813F0100305D1E2680132E260A2695A
:1045200002B13B7023691E4426610020C6E70000EB
:104530002DE9F04F9A46744B0C468346164693E895
:10454000070087B003ABA76883E807006F4BA1693A
:104550006F4A032908BF1A467B1EB3F5AE7F84BF9E
:1045600040F25D13A3602368009243F4506388BF58
:104570006FF4AE7504F11C0923608CBF7F1900270E
:104580004B464FF000080193316803AB022253F809
:1045900028000978FBF7ACFF019B30B3B8F1010F9D
:1045A0005AD162682AB92268082142F40072616017
:1045B0002260226822F4A0622260A268511EA160DB
:1045C0009AB13268511C316012781A705D1C7368A0
:1045D000013B002B736007DCD4F88031314658462C
:1045E0009847002840F086802B4608F10108B8F172
:1045F000030FC8D162680AB90A226260626845493D
:1046000060690193891A00F087F8019B4FF0000858
:104610001D46A3682268002B3AD03168606991F882
:1046200000C010F80C00002832D0BCF1300F21D1AE
:1046300010051FD508F1010817B10133013FA36030
:104640007368013B002B73601BDD336801333360FB
:10465000A368013BA360DCE7B8F1020FADD122688B
:1046600002F4C061B1F5007FBFD11021616042F456
:104670008072A1E722F4106222600B782B70013562
:10468000DEE7D4F880313146584698470028DFD01D
:104690002368D9050CD54D4508D915F8011CD4F867
:1046A0007C313246584698476F1E3D464D4529D0CD
:1046B000226812F0100213D12A706368009E4946E6
:1046C0005846B047DAF8003021681A1DCAF80020B1
:1046D00011F0200F1B6810D01860E3680133E3600D
:1046E000A5EB0905A844256945442561002007B0CC
:1046F000BDE8F08F4FF00008CAE7CA074CBF18802A
:104700001860EAE70120F2E7D04C0008754800087D
:104710008D490008574E000870B50B785E2B13BF0B
:104720004A1C8A1C4B78002108BF0121441E00F15D
:10473000FF0504F8011FAC42FBD113B9013A104642
:1047400070BD81F00104C454511C11F8015C2D2D81
:1047500001F1FF360A4606D05D2DF0D00DB9324684
:10476000EDE72B46EFE70E785D2EFAD0B342F8DC8A
:1047700001339E42C454FBDC0231E6E72DE9F047E9
:104780008046894692461E460F463D46089815F8D3
:10479000014B00F047F92044437813F0080332D16D
:1047A0002D2C32D17C78BD1C0122002E5DD0102E24
:1047B00009D1302C07D12B7803F0DF03582B4FD1D0
:1047C0006C7810260235002A14BF4FF000416FF0BC
:1047D00000410027B1FBF6FC384606FB1C1EA4F185
:1047E0003003092B17D81C46A64223DD7B1C07D0BB
:1047F00084451CD301D1A64519DB00FB06400127E7
:1048000015F8014BEBE72F46BFE72B2C04BFBD1C6F
:104810007C781A46C9E7A4F14103192B01D8373C2B
:10482000E2E7A4F16103192B04D8573CDCE74FF011
:10483000FF37E5E77B1C08D12223C8F80030084683
:10484000BAF1000F07D1BDE8F08702B14042BAF1DA
:10485000000FF8D00FB105F1FF39CAF80090F2E768
:104860003024002EAFD10826ADE7302CA3D00A2685
:10487000A9E7000037B5064C064D2468246A002CD1
:1048800008BF2C460094FFF779FF03B030BD00BF8E
:10489000B4000020180100202DE9F0478046894629
:1048A00092461E460F463D46089815F8014B00F00B
:1048B000B9F82044437813F0080330D12D2C30D1BF
:1048C0007C78BD1C0121002E5CD0102E09D1302C2B
:1048D00007D12B7803F0DF03582B4ED16C781026CC
:1048E00002354FF0FF320023B2FBF6F206FB02FC6A
:1048F0006FEA0C0C1846A4F13007092F17D83C4674
:10490000A64223DD002B1EDB82421CD301D1A4452D
:1049100019DB00FB0640012315F8014BEBE72F469E
:10492000C1E72B2C04BFBD1C7C781946CBE7A4F152
:104930004107192F01D8373CE2E7A4F16107192F8D
:1049400004D8573CDCE74FF0FF33E5E7002B09DAEA
:104950002223C8F800304FF0FF30BAF1000F07D122
:10496000BDE8F08701B14042BAF1000FF8D00BB1B9
:1049700005F1FF39CAF80090F2E73024002EB0D1DB
:104980000826AEE7302CA4D00A26AAE737B5064C95
:10499000064D2468246A002C08BF2C460094FFF7BB
:1049A0007BFF03B030BD00BFB40000201801002021
:1049B0002DE9F0410C46496B04F1440399421DD1A5
:1049C0004FF4806100F0BAF818B94FF0FF30BDE83D
:1049D000F0814FF48063A36394F84630606380F8FD
:1049E000FF3394F8453080F8FE3394F8443080F873
:1049F000FD3300F2FD3020600020E8E7A66B770071
:104A00003A4600F0F5F805460028DED000EB06082F
:104A1000014632464046FFF745F8C4F80080C4E935
:104A20000D57E9E7D0F8EC0070470000044B054A49
:104A30001B681B6A002B08BF1346D3F8EC007047B5
:104A4000B40000201801002082B001B901A942B1D0
:104A50004BB113780B601278101C18BF012002B004
:104A600070471046FBE76FF00100F8E7884210B589
:104A700001EB020307D8421E99420AD011F8014BFC
:104A800002F8014FF8E78342F5D98118D21AD342D0
:104A900000D110BD13F8014D01F8014DF7E70000FA
:104AA00038B50546002945D051F8043C0C1F002BB1
:104AB000B8BFE41800F0DFF81F4A1368104633B996
:104AC000636014602846BDE8384000F0D5B8A342C2
:104AD0000CD921686218934204BF1A685B6863604E
:104AE00004BF521822600460ECE713465A680AB10A
:104AF000A242FAD919685818A0420BD12068014483
:104B0000581882421960DDD1106852685A60014419
:104B10001960D7E702D90C232B60D3E7206821184E
:104B20008A4204BF11685268626004BF091821609C
:104B30005C60C7E738BD00BF1441002070B5CD1CD4
:104B400025F0030508350C2D38BF0C25002D064631
:104B500001DBA94203D90C233360002070BD00F0B3
:104B60008AF8214A1468214691B9204C23681BB960
:104B7000304600F063F820602946304600F05EF8C9
:104B8000431C24D10C233360304600F075F8E4E771
:104B90000B685B1B18D40B2B0FD90B60CD50CC18B6
:104BA000304600F069F804F10B00231D20F00700E7
:104BB000C31AD3D05A42E250D0E78C424B6816BF9A
:104BC000636013600C46EBE70C464968CCE7C41CF5
:104BD00024F00304A04205D0211A304600F02EF83C
:104BE0000130CFD02560DBE71441002018410020C0
:104BF000F8B5074614460E4621B91146BDE8F840FF
:104C0000FFF79CBF22B9FFF74BFF25462846F8BDAA
:104C100000F033F8A0420FD221463846FFF78EFF4E
:104C200005460028F2D031462246FEF73BFF3146CA
:104C30003846FFF735FFE9E73546E7E738B5064C74
:104C40000023054608462360FEF7B2FD431C02D14F
:104C5000236803B12B6038BD2C42002049B1FF2AE4
:104C600085BF8A2303600A704FF0FF3098BF012090
:104C70007047084670477047704751F8043C181F4A
:104C8000002BBCBF0B58C01870470000F8B500BF20
:104C9000F8BC08BC9E467047F8B500BFF8BC08BC1D
:044CA0009E46704775
:104CA400DC4C0008792E0008000000000000000021
:104CB4008000000000000000000000000102030466
:104CC400060708090000000001020304594E000809
:104CD4005C4E00085F4E000864656661756C745430
:104CE40061736B004572726F7220656E205265634A
:104CF400657063696F6E00002534732535642E2555
:104D040035642E2534642E2535642E2533642E25F2
:104D1400347800000D0A204974656D73206C656950
:104D2400646F73204F7574646F6F722025640D0A6D
:104D3400000000000D0A2056656C6F6369646164AD
:104D4400206465207669656E746F2025640D0A0001
:104D54000D0A204572726F7220656E204F7574645F
:104D64006F6F72496E666F0D0A0000000D0A2052C3
:104D7400544F53312054502046696E616C20522E9A
:104D84004F6C6976612032303139200D0A00000001
:104D94005441534B5F444953504C41592D31000009
:104DA4005441534B5F43484B5F4D45545F320000C1
:104DB4005441534B5F50524F434553535F4F5554E7
:104DC400445F33005441534B342D554152542D57B5
:104DD40052495445000000005441534B352D505264
:104DE400494E544552524F520000000046616C6CCB
:104DF4006F206C61206372656163696F6E20646506
:104E0400206C617320636F6C6173210D0A000000D4
:104E1400232D302B2000686C4C006566674546479F
:104E24000030313233343536373839414243444522
:104E34004600303132333435363738396162636491
:104E4400656600412D46612D663839303132333480
:104E54003536375D002B2D003030007858000000C7
:104E6400000000000000000000000000000000003E
:104E7400000000000000000000000000000000002E
:104E8400000000000000000000000000000000001E
:104E9400000000000000000000000000000000000E
:104EA40000000000000000000000000000000000FE
:104EB40000000000000000000000000000000000EE
:104EC4004300504F534958002E000020202020203A
:104ED40020202020282828282820202020202020A6
:104EE4002020202020202020202020881010101096
:104EF40010101010101010101010100404040404EA
:104F04000404040404101010101010104141414115
:104F140041410101010101010101010101010101FD
:104F2400010101010101101010101010424242420F
:104F340042420202020202020202020202020202CD
:104F440002020202020210101010200000000000F1
:104F5400000000000000000000000000000000004D
:104F6400000000000000000000000000000000003D
:104F7400000000000000000000000000000000002D
:104F8400000000000000000000000000000000001D
:104F9400000000000000000000000000000000000D
:104FA40000000000000000000000000000000000FD
:104FB40000000000000000000000000000000000ED
:0C4FC400000000000000000000000000E1
:084FD00040B2FF7F0100000068
:044FD800C501000807
:044FDC00A101000827
:104FE0000100000010000000AAAAAAAA0D0A4C6540
:104FF0006374757261205553415254204D45544598
:105000004F2D2D2D2D3E2031200D0A455849545F3E
:1050100041505020202020202020202020202D2DF5
:105020002D2D3E2030200D0A5479706520796F7542
:1050300072206F7074696F6E2068657265203A2007
:10504000000000005555552432393333352E3130A8
:105050003135362E323536322E31353130302E3133
:1050600032352E31303935005555552432393333E8
:10507000352E31303135362E323536322E3135310E
:1050800030302E3132352E313039352A51515100E0
:105090000024F400B800002000000000844E000846
:1050A000A44E0008644E000800000000000000004C
:1050B00000000000000000000000000000000000F0
:1050C00000000000000000000000000000000000E0
:1050D00000000000000000000000000000000000D0
:1050E00000000000000000000000000000000000C0
:1050F000000000000000000043000000000000006D
:10510000000000000000000000000000000000009F
:10511000000000000000000043000000000000004C
:10512000000000000000000000000000000000007F
:10513000000000000000000043000000000000002C
:10514000000000000000000000000000000000005F
:10515000000000000000000043000000000000000C
:10516000000000000000000000000000000000003F
:1051700000000000000000004300000000000000EC
:10518000000000000000000000000000000000001F
:1051900000000000000000004300000000000000CC
:1051A00000000000000000000000000000000000FF
:1051B00000000000000000004300000000000000AC
:1051C00000000000000000000000000000000000DF
:1051D00000000000000000005D4C0008494A000883
:1051E00000000000CE4E0008CC4E0008194E00080A
:1051F000194E0008194E0008194E0008194E0008F3
:10520000194E0008194E0008194E0008194E0008E2
:10521000FFFFFFFFFFFFFFFFFFFFFFFFFFFF00009C
:105220000100415343494900000000000000000014
:10523000000000000000000000000000000000006E
:1052400000004153434949000000000000000000F5
:10525000000000000000000000000000000000004E
:04526000000000004A
:04000005080039FDB9
:00000001FF
