:020000040800F2
:1000000000000220ED270008492600084D260008C0
:100010005126000855260008592600080000000057
:10002000000000000000000000000000811E000829
:100030005D26000800000000111F0008751F000861
:100040003D2800083D2800083D2800083D280008FC
:100050003D2800083D2800083D2800083D280008EC
:100060003D2800083D2800083D2800083D280008DC
:100070003D2800083D2800083D2800083D280008CC
:100080003D2800083D2800083D2800080000000029
:100090000000000000000000000000003D280008F3
:1000A0003D280008612600083D2800083D2800087A
:1000B0003D2800083D2800083D2800083D2800088C
:1000C0003D2800083D2800083D2800083D2800087C
:1000D0003D2800083D2800083D28000800000000D9
:1000E0003D2800083D2800083D28000800000000C9
:1000F0000000000000000000000000003D28000893
:10010000000000003D2800083D2800083D280008A8
:1001100000000000000000000000000000000000DF
:100120003D2800083D2800083D2800083D2800081B
:100130003D28000800000000000000000000000052
:100140000000000000000000000000003D28000842
:100150003D2800083D2800083D2800083D280008EB
:100160003D2800083D2800080000000000000000B5
:10017000000000000000000000000000000000007F
:10018000000000003D280008000000000000000002
:080190003D2800083D2800088D
:1001A00010B5054C237833B9044B13B10448AFF3B1
:1001B00000800123237010BD10000020000000000B
:1001C0008828000808B5034B1BB103490348AFF367
:1001D000008008BD000000001400002088280008EE
:1001E00053B94AB9002908BF00281CBF4FF0FF319E
:1001F0004FF0FF3000F072B9ADF1080C6DE904CE9C
:1002000000F006F8DDF804E0DDE9022304B07047F1
:100210002DE9F047089E04468846002B4BD18A42C0
:10022000154667D9B2FA82F24AB1C2F1200701FA43
:1002300002F320FA07F7954047EA030894404FEA93
:10024000154E230CB8FBFEF71FFA85FC0EFB178832
:1002500043EA084307FB0CF1994209D9EB1807F16F
:10026000FF3080F01B81994240F21881023F2B44FD
:100270005B1AA4B2B3FBFEF00EFB103344EA034456
:1002800000FB0CFCA44509D92C1900F1FF3380F0C8
:100290000781A44540F2048102382C4440EA07401B
:1002A000A4EB0C0400271EB1D4400023C6E9004390
:1002B0003946BDE8F0878B4209D9002E00F0EB806B
:1002C0000027C6E9000138463946BDE8F087B3FA91
:1002D00083F7002F47D18B4202D3824200F2FA808B
:1002E000841A61EB030301209846002EE0D0C6E992
:1002F0000048DDE702B9FFDEB2FA82F2002A40F0E0
:100300008F80491B4FEA154E1FFA85F80127B1FB74
:10031000FEFC230C0EFB1C1143EA014308FB0CF10D
:10032000994207D9EB180CF1FF3002D2994200F242
:10033000CD808446591AA3B2B1FBFEF00EFB101417
:1003400043EA044408FB00F8A04507D92C1900F142
:10035000FF3302D2A04500F2B6801846A4EB080491
:1003600040EA0C409FE7C7F1200CBB4022FA0CFE8C
:100370004EEA030E01FA07F420FA0CF521FA0CF309
:100380004FEA1E482543B3FBF8F92C0C08FB193340
:100390001FFA8EFA44EA034309FB0AF49C4202FA6C
:1003A00007F200FA07F10BD91EEB030309F1FF3046
:1003B00080F087809C4240F28480A9F10209734456
:1003C0001B1BADB2B3FBF8F008FB103345EA034446
:1003D00000FB0AFAA24508D91EEB040400F1FF3322
:1003E0006BD2A24569D90238744440EA0940A0FBA7
:1003F0000289A4EB0A044C45C2464B4654D351D063
:10040000002E69D0B1EB0A0564EB030404FA0CFC7E
:10041000FD40FC404CEA0505C6E90054002747E7CB
:10042000C2F1200320FA03F7954001FA02F021FA05
:1004300003F34FEA154E3843010CB3FBFEF71FFAE6
:1004400085F80EFB173341EA034107FB08F38B42A3
:1004500004FA02F407D9691807F1FF3C2FD28B4246
:100460002DD9023F2944CB1A81B2B3FBFEF00EFB1B
:10047000103341EA034100FB08F38B4207D96918A6
:1004800000F1FF3C17D28B4215D902382944C91A12
:1004900040EA07473BE73746304609E70746E7E6C5
:1004A0001846FBE64145ABD2B8EB020A69EB0E02F7
:1004B00001381346A4E76046E9E7184695E7674622
:1004C000D1E781467CE702382C4447E7ACF1020CC7
:1004D0002B442FE7384608E73746E9E6704700BF68
:1004E00008B50B4B1A6842F400721A601A6842F49D
:1004F00080621A601A6842F480721A60032000F069
:100500002DF8002002F062F802F040F8002008BD4B
:10051000003C0240034A044B11681B780B441360F3
:10052000704700BF7C3D002000000020014B186890
:10053000704700BF7C3D002038B50446FFF7F6FF4A
:10054000631C054602D0044B1B781C44FFF7EEFFEA
:10055000401BA042FAD338BD00000020074AD368F0
:100560004FF6FF010B40000243F0BF6300F4E06070
:1005700043F400330343D360704700BF00ED00E055
:10058000184BDB68C3F3022330B4C3F10705042D15
:1005900003F1040428BF0425062C19D9033B4FF0AE
:1005A000FF349C4022EA04044FF0FF32AA4021EAC3
:1005B000020101FA03F2224312010028D2B20ADB3F
:1005C00000F1604000F5614080F8002330BC7047C6
:1005D00000242346E8E7044B00F00F0003441A769A
:1005E00030BC704700ED00E0FCEC00E0002807DBC9
:1005F00000F01F0101234009024A8B4042F82030DD
:10060000704700BF00E100E02DE9F04FDFF8B4C112
:10061000D1F8008083B08E4600254FF0010902E03A
:100620000135102D7ED009FA05F308EA03018B424B
:10063000F6D1DEF8044024F0100ABAF1020F74D0AB
:100640006F000322D0F800B0BA40D24304F0030692
:1006500002EA0B0BBE400AF1FF3A46EA0B06BAF17A
:10066000010F066040F28280C668DEF80830324032
:10067000BB401343E700C360D2D54D4A002301932A
:10068000536C43F480435364536C25F0030606F126
:10069000804603F4804306F59C36019305F003027F
:1006A000019BB76892000F23934027EA0303414F51
:1006B000B84211D007F58067B8426AD03E4FB842C1
:1006C0006BD03E4FB8426DD03D4FB8420CBF0427AF
:1006D000072707FA02F21343B360DCF80030CA437D
:1006E000E60354BF13400B43CCF80030DCF8043071
:1006F000A70354BF13400B43CCF80430DCF8083098
:10070000E60254BF13400B43CCF80830DCF80C3041
:10071000A40205F1010554BF13400B43102DCCF882
:100720000C3080D103B0BDE8F08FEF0800EB8707F5
:1007300005F007063A6AB6004FF00F0B0BFA06FBFE
:1007400022EA0B0ADEF81020B24042EA0A023A62BC
:100750006F000322D0F800A0BA40D24304F0030691
:100760000AEA020ABE4046EA0A060660866806EA07
:10077000020ADEF80C60BE4046EA0A068660D0F83F
:1007800004A0C4F300162AEA0303AE401E434660E9
:100790006AE709FA02F213439EE7022707FA02F218
:1007A000134399E7032707FA02F2134394E700BFC4
:1007B000003802400000024000080240000C0240E5
:1007C00000100240003C014002B9090481617047F9
:1007D000002800F09780F8B590F83D30044603F00B
:1007E000FF02002B00F087802268242384F83D302C
:1007F000136823F00103136000F02CFB61684B4B7E
:1008000099424BD84A4B98427AD92268494B55684D
:10081000A3FB00639B0C25F03F051D435560156A43
:10082000013325F03F052B431362D5694900431E70
:10083000B3FBF1F30133C3F30B0325F44F45042B52
:1008400038BF042325F0FF052B43D361D4E90735D6
:100850001068216920F0C0002B43034313609068A7
:10086000E568636920F4034020F0FF002943014359
:100870009160D168A06921F0FF0103430B43D3606D
:100880001168002341F001012025116018462364FE
:1008900084F83D50236384F83E30F8BD264B9842DF
:1008A0002ED92268234B5668244FA3FB00539D0C7E
:1008B00026F03F062E434FF49673566003FB05F374
:1008C000A7FB0353156AA6689B0925F03F05013372
:1008D0002B431362D56925F44F45013825F0FF05F8
:1008E00096B901EB4101B0FBF1F00130C0F30B0010
:1008F000C0B90123A8E780F83C2001F059FD73E757
:100900000120F8BD0120704701EB810101EB81015D
:10091000B0FBF1F00130C0F30B000028E9D040F447
:10092000404391E740F400438EE700BFA0860100FA
:100930007F841E0083DE1B43FF083D00D34D621001
:10094000002800F032812DE9F0410368DD0782B014
:1009500004462FD5AC498A6802F00C02042A00F044
:10096000EA808A6802F00C02082A00F0E0806368DE
:10097000B3F5803F00F0E980B3F5A02F00F054817B
:10098000A14D2A6822F480322A602A6822F480224B
:100990002A60002B40F0DE80FFF7C8FD064605E028
:1009A000FFF7C4FD801B642800F2F2802B689B03D4
:1009B000F6D423689F0775D41A0715D56369002BF1
:1009C00000F0A580914B904D01221A60FFF7AEFD1B
:1009D000064605E0FFF7AAFD801B022800F2D8803A
:1009E0006B6F9B07F6D5236858073BD5864A136C77
:1009F00013F0805340F0DB800193136C43F080537D
:100A00001364136C03F080530193019B0126804D06
:100A10002A68D10540F1AC80A368012B00F0C980A1
:100A2000052B00F00B81784D2A6F22F001022A6716
:100A30002A6F22F004022A67002B40F0BF80FFF7E4
:100A400075FD41F28837804606E0FFF76FFDA0EBA9
:100A50000800B84200F29C802B6F9807F5D4002E56
:100A600040F0DC80A269CAB1674DA96801F00C01B1
:100A7000082948D0022A674A4FF00001116000F0AF
:100A8000E780FFF753FD2C46054604E0FFF74EFDD7
:100A9000401B02287CD823689B01F7D4002002B0B9
:100AA000BDE8F081584A916811F00C0F24D091688C
:100AB00001F00C0108291CD0E368002B00F09280A3
:100AC000554B514D01221A60FFF730FD064604E0F8
:100AD000FFF72CFD801B02285AD82B689807F7D502
:100AE0002B68226923F0F80343EAC2032B602368D2
:100AF00062E752685602DFD4434A126895074BD525
:100B0000E268012A48D0012002B0BDE8F0813F4AE6
:100B10003D4D1360FFF70AFD064604E0FFF706FDB2
:100B2000801B022834D86B6F9F07F7D45BE74A68B5
:100B300050027FF51CAF344A126891037FF53AAF3B
:100B40006268002A7FF436AFDDE72F4A136843F46A
:100B500080331360FFF7EAFC2B4D064604E0FFF7F5
:100B6000E5FC801B642813D82B689A03F7D520E78F
:100B70002A6842F480722A60FFF7D8FC07462B6887
:100B8000DA053FF549AFFFF7D1FCC01B0228F6D9C3
:100B9000032002B0BDE8F0811B4920690A6822F0F9
:100BA000F80242EAC0020A6006E701207047002608
:100BB0002DE7154A136F43F001031367FFF7B6FCE7
:100BC000114D804641F2883705E0FFF7AFFCA0EBFE
:100BD0000800B842DCD82B6F9B07F6D5002E3FF4F7
:100BE00041AF1BE00C4A084D1360FFF79FFC06461F
:100BF00004E0FFF79BFC801B0228C9D82B689907EB
:100C0000F7D42368D8E600BF00380240800E474280
:100C1000007000406000474200004742234A136CC6
:100C200023F0805313641DE7204B1A6842F480229E
:100C30001A601A6842F480321A608BE71B4B1A6FF5
:100C400042F004021A671A6F42F001021A67B5E710
:100C5000FFF76CFC064604E0FFF768FC801B0228E7
:100C600096D82B689901F7D4D4E90736D4E909025C
:100C7000E16A0E4C334343EA8013520843EA0163AE
:100C8000013A0B4943EA024301226B600A60FFF715
:100C90004DFC054605E0FFF749FC401B02283FF6E6
:100CA00077AF23689A01F6D5F8E600BF0038024016
:100CB00060004742174908B58B6803F00C03042B0A
:100CC0001BD0082B17D14A684B6813F4800302F03D
:100CD0003F0214D149681048C1F38811A1FB0001FB
:100CE000FFF77EFA0B4B5B68C3F3014301335B00F4
:100CF000B0FBF3F008BD084808BD084808BD4B68C4
:100D00000648C3F38813A3FB00010023FFF768FA2A
:100D1000E8E700BF003802400024F40000127A0027
:100D200060B1484A136803F00F038B4208D2CBB27C
:100D30001370136803F00F038B4201D0012070473A
:100D400003682DE9F0419D0714D55C0704D53E4C9E
:100D5000A26842F4E052A2601A0704D53A4CA26895
:100D600042F46042A260384C8568A26822F0F0022A
:100D70002A43A260DF0704460D4622D54268012AB5
:100D800056D0931E012B304B1B6858D9990725D597
:100D90002D4EB36823F003031343B360FFF7C6FB84
:100DA00041F28837804605E0FFF7C0FBA0EB080062
:100DB000B84242D8B368626803F00C03B3EB820F09
:100DC000F2D1204A136803F00F03AB4209D9EBB20A
:100DD0001370136803F00F03AB4202D00120BDE88B
:100DE000F08123685A0706D51749E0688A6822F41B
:100DF000E05202438A601B0711D4FFF75BFF124BDE
:100E000012499B68124AC3F30313CB5C20FA03F325
:100E10000020136001F0DAFB0020BDE8F0810A4AEF
:100E20002169936823F4604343EAC1039360E4E7D4
:100E3000054B1B689E03ABD4D0E70320EDE7980178
:100E4000A6D4CBE7003C024000380240B42800089A
:100E50000C000020044B054A9B680549C3F382231C
:100E60000868D35CD840704700380240C4280008A6
:100E70000C000020044B054A9B680549C3F342332C
:100E80000868D35CD840704700380240C428000886
:100E90000C0000200E4B0F2202609A6802F0030241
:100EA00042609A6802F0F00282609A6802F4E052AE
:100EB000C2609B68DB0810B403F4E053054C036187
:100EC00023685DF8044B03F00F030B60704700BF0D
:100ED00000380240003C0240704700BF002846D066
:100EE000F8B590F83D30044603F0FF0233B32268B2
:100EF000284DA669E0686168022384F83D30AA4263
:100F0000136836D0B2F1804F1DD0A5F57C45AA42BA
:100F100019D005F58065AA4215D005F58065AA426D
:100F200011D005F59A35AA4211D005F58065AA427F
:100F30000DD005F58065AA420DD108E080F83C206F
:100F4000FFF7CAFFD3E7A56823F070032B43256999
:100F500023F440732B4323F0800333431360D062A8
:100F6000916201235361002084F83D30F8BD0120D7
:100F70007047A768256923F070033B4323F440734F
:100F80002B4323F0800333431360D0629162636983
:100F90001363E6E7000001400368DA6842F00102EB
:100FA000DA609A6802F00702062A03D01A6842F053
:100FB00001021A6000207047704700BF704700BFF1
:100FC000704700BF704700BF03681A69910710B5EA
:100FD000044602D5DA6892075FD41A69500702D531
:100FE000DA68510746D41A69120702D5DA68100781
:100FF0002ED41A69D20602D5DA68D00618D41A6936
:10100000D10702D5DA68D2075DD41A69100602D575
:10101000DA6811065FD41A69520602D5DA685006FA
:1010200061D41A69910602D5DA68920643D410BDDC
:101030006FF010021A61DB69082213F4407F2277F7
:10104000204664D0FFF7BAFF002223682277D6E754
:101050006FF008021A61DB690422990722772046A3
:1010600052D1FFF7A9FF2046FFF7AAFF002223680D
:101070002277BEE76FF004021A619B69022213F423
:10108000407F227720463CD1FFF796FF2046FFF7AE
:1010900097FF002223682277A5E76FF002021A610A
:1010A0009B6901229B07027725D0FFF787FF00226B
:1010B0002368227791E76FF0200220461A61BDE88D
:1010C000104000F02BB86FF001021A61204601F0C9
:1010D00051FA236899E76FF080021A61204600F008
:1010E0001FF8236897E76FF040021A612046FFF768
:1010F00069FF236895E7FFF75FFF2046FFF760FF72
:10110000D5E7FFF75BFFC4E7FFF758FFAEE7FFF750
:1011100053FF2046FFF754FF96E700BF704700BF1C
:10112000704700BF002800F004812DE9F84390F8D3
:101130003930044603F0FF02002B00F0F5802368ED
:101140002669242284F83920D86820F40050D4E994
:101150000225D8601969E06921F4405129431961D9
:10116000D9686569324321F416412A4321F00C0104
:1011700002430A43DA605A69A16922F440720A43C1
:10118000B0F5004F5A61AA4A71D0934200F0D38063
:1011900002F58062934200F0CE80FFF75BFEA54F20
:1011A000636800EB800000EB80009B00B0FBF3F372
:1011B000A7FB03235B091D01FFF74CFE666800EBEC
:1011C000800000EB8000B600B0FBF6F6FFF742FEB1
:1011D000636800EB800000EB80009B00B0FBF3F342
:1011E000A7FB03235B094FF0640909FB13631B0191
:1011F0003233A7FB03235B0903F0F006FFF72AFE57
:10120000626800EB800000EB80009300B0FBF3F815
:10121000FFF720FED4E9002100EB80008B0000EBFB
:101220008000B0FBF3F3A7FB03135B0909FB1383F7
:101230001B013233A7FB0313C3F3431333432B4484
:101240009360136923F490431361536923F02A03D5
:101250005361D3680025202143F40053D36028460E
:10126000E56384F8391084F83A10BDE8F8839342B6
:1012700000F09F8002F58062934200F09A80FFF7B1
:10128000E9FD6C4F636800EB800000EB80005B00C1
:10129000B0FBF3F3A7FB03235B091E01FFF7DAFDA5
:1012A000656800EB800000EB80006D00B0FBF5F599
:1012B000FFF7D0FD636800EB800000EB80005B006F
:1012C000B0FBF3F3A7FB03235B094FF0640909FBB1
:1012D0001353DB003233A7FB03231B0903F4F87518
:1012E000FFF7B8FD626800EB800000EB8000530060
:1012F000B0FBF3F8FFF7AEFDD4E9002100EB80006E
:101300004B0000EB8000B0FBF3F3A7FB03135B097A
:1013100009FB1383DB003233A7FB0313C3F3421330
:1013200033442B4493608CE780F8382001F0FEF9B9
:1013300005E701207047FFF79DFD3E4F636800EB16
:10134000800000EB80009B00B0FBF3F3A7FB0323BE
:101350005B091D01FFF78EFD666800EB800000EB66
:101360008000B600B0FBF6F6FFF784FD636800EB83
:10137000800000EB80009B00B0FBF3F3A7FB03238E
:101380004FF064095B0909FB13631B013233A7FBB0
:1013900003235B0903F0F006FFF76CFD626800EBC6
:1013A0008000930000EB8000B0FBF3F8FFF762FDD4
:1013B00030E7FFF75FFD1F4F636800EB800000EB35
:1013C00080005B00B0FBF3F3A7FB03235B091E0166
:1013D000FFF750FD656800EB800000EB80006D00BA
:1013E000B0FBF5F5FFF746FD636800EB800000EB0E
:1013F00080005B00B0FBF3F3A7FB03234FF064090D
:101400005B0909FB1353DB003233A7FB03231B09E2
:1014100003F4F875FFF72EFD626800EB80005300BF
:1014200000EB8000B0FBF3F8FFF724FD64E700BF9A
:10143000001001401F85EB51F0B50E4690F83910B1
:10144000202983B02DD1002E2ED0019262B31F46E9
:1014500090F83830012B044623D00023C3630121C8
:10146000212380F8381080F83930FFF75FF8019AAF
:10147000A284E28422680546E38C9BB2002B39D01B
:10148000E08CA168013880B2B1F5805FE08419D0AA
:10149000781C3BD110680106FCD5337853600136C7
:1014A000EAE7022003B0F0BD012003B0F0BD1368ED
:1014B0001B060CD4002F33D0FFF738F8401B8742AF
:1014C00022682DD3781CF2D110680106FCD5338830
:1014D0002169C3F3080353600029E0D10236CBE74A
:1014E00013685B060BD4DFB1FFF720F8401B87427F
:1014F000226815D3781CF3D113685906FCD5202334
:10150000002084F8393084F83800CBE713681B06D4
:10151000C3D42FB1FFF70AF8401B87422268B7D225
:10152000D36823F4D073D3605369202123F00103DF
:1015300000250320536184F8391084F8385084F86A
:101540003A1003B0F0BD00BF08B500F0FBF9002071
:1015500008BD00BF30B5B0F9084085B0842C024604
:1015600014BF0334002403AD0B4640681168128A8F
:10157000CDE9004500F0CCF801280CBF039800200D
:1015800005B030BD08B5002808BF012000F0C8FB39
:10159000002008BD00F108034FF0FF3100228160F8
:1015A00002604360C0E90333704700BF002303615A
:1015B000704700BF4368026810B49C688C609C68E8
:1015C0004B600132616099605DF8044B0861026014
:1015D000704700BF30B40D686B1C11D000F10802D9
:1015E00000E01A4653681C68AC42FAD904684B60A4
:1015F000013499608A6051600861046030BC7047B2
:1016000002695368F2E700BF42688168036910B459
:10161000916081685C684A601A68844208BF5960BA
:10162000013A002101611A6018685DF8044B7047A7
:1016300080B5134C134F4FF0805614E000F032FC8D
:101640002369DD68281DFFF7DFFFA369013BA36164
:101650002368013B236000F047FC286B00F0E4FDA9
:10166000284600F0E1FD2368002BE7D1E369012B58
:10167000F9D93E60BFF34F8FBFF36F8FF3E700BF21
:101680002C00002004ED00E0F8B51F4CD4F8A85061
:10169000D4F8AC300646181D0F46FFF7B5FF50B919
:1016A000D4F8AC20D4F8B030D16A01228A4023EAC1
:1016B0000203C4F8B030731C1BD0D4F8AC30AD19A1
:1016C0005D600DD2D4F8CC00D4F8AC100431FFF733
:1016D00081FFD4F8D030AB4288BFC4F8D050F8BDF9
:1016E000D4F8C800D4F8AC10BDE8F8400431FFF7D6
:1016F00071BF002FE1D0D4F8AC1004480431BDE82C
:10170000F840FFF757BF00BF2C000020E00000208A
:101710002DE9F84F4FEA820A804650460D46994619
:101720000B9F00F005FD002800F0038106465420C1
:1017300000F0FEFC0446002800F0CE8006632B7803
:1017400080F83430AAF1040A2B78564426F0070AB0
:10175000002B4DD06B7880F835306B78002B47D05C
:10176000AB7880F83630AB78002B41D0EB7880F83E
:101770003730EB78002B3BD02B7980F838302B7941
:10178000002B35D06B7980F839306B79002B2FD056
:10179000AB7980F83A30AB7953B3EB7980F83B30D2
:1017A000EB792BB32B7A80F83C302B7A03B36B7A2E
:1017B00080F83D306B7ADBB1AB7A80F83E30AB7AA3
:1017C000B3B1EB7A80F83F30EB7A8BB12B7B80F8AA
:1017D00040302B7B63B16B7B80F841306B7B3BB13E
:1017E000AB7B80F84230AB7B13B1EB7B80F84330AE
:1017F0000A9D062D28BF06254FF0000B261DE56229
:101800006564304684F843B0C4F848B0FFF7CEFEB4
:10181000C5F1070504F11800FFF7C8FEC4F84CB085
:10182000A561246184F850B064624A46414650463E
:1018300000F010FB206007B13C603F4D00F032FB30
:10184000AB690133AB61D5F8AC30002B3BD0D5F898
:101850001021E36A7AB305F11C08D5F8B0200127FE
:1018600007FA03FC03EB830308EB83004CEA020353
:10187000D5F81421C5F8B0303A443146C5F81421E2
:10188000FFF798FE00F030FBD5F8103183B1D5F8A2
:10189000AC20E36AD26A9A420AD2284B4FF08052B7
:1018A0001A60BFF34F8FBFF36F8F3846BDE8F88FD4
:1018B0003846BDE8F88FD5F8AC20D26A9A4298BF76
:1018C000C5F8AC40C7E7C5F8AC40AB69012B0AD0FE
:1018D000E36A05F11C08C0E7304600F0A5FC4FF0B4
:1018E000FF30BDE8F88F05F11C08474605F1A8094F
:1018F00038461437FFF74EFE4F45F9D1104F3846A2
:1019000007F11409FFF746FE4846FFF743FE07F1CB
:101910002800FFF73FFEA7F1D000FFF73BFEA7F13D
:101920002000FFF737FEC5F8CC70E36AC5F8C89011
:1019300093E74FF0FF30BCE72C00002004ED00E0FF
:10194000000100202DE9F8434FF4007000F0F0FB97
:10195000002800F08E800646542000F0E9FB054682
:10196000002800F0838000245A4B4363071D066360
:1019700080F8384080F84340C462C0E911443846DA
:10198000FFF714FE06F5FE7605F11800FFF70EFED0
:1019900026F007060723EC642246AB6185F8504029
:1019A0004D492D6130466D6200F054FA4B4C286071
:1019B000C4F8205100F076FAA3690133A361D4F88A
:1019C000AC30002B49D0D4F81031E86A33B9D4F8E0
:1019D000AC30DB6A834298BFC4F8AC5004F11C06FB
:1019E000D4F8B0C0D4F814310122824000EB80005A
:1019F000013342EA0C02394606EB8000C4F8143188
:101A0000C4F8B020FFF7D6FD00F06EFAD4F810311C
:101A10006BB1D4F8AC20EB6AD26A9A4207D2304B51
:101A20004FF080521A60BFF34F8FBFF36F8F4FF0AC
:101A3000500383F31188BFF36F8FBFF34F8F0023E1
:101A40004FF0FF310122C4F8D010C4F81021C4F8BF
:101A5000A830BDE8F84300F0C1BAC4F8AC50A3699F
:101A6000012B0FD0E86A04F11C06B9E7304600F0FC
:101A7000DBFB4FF0500383F31188BFF36F8FBFF38D
:101A80004F8FFEE704F11C06B04604F1A80940465A
:101A900008F11408FFF77EFDC145F8D1DFF8448056
:101AA000404608F11409FFF775FD4846FFF772FD3F
:101AB00008F12800FFF76EFDA8F1D000FFF76AFDDE
:101AC000A8F12000FFF766FDC4F8CC80E86AC4F8EE
:101AD000C89085E749444C45311600082C00002089
:101AE00004ED00E000010020034AD2F81831013370
:101AF000C2F81831704700BF2C0000202DE9F047D4
:101B0000474CD4F81831B3B9D4F8A8600136C4F8FA
:101B1000A860F6B1D4F8D030B34228D90025D4F863
:101B2000AC30DB6A03EB830304EB8303DB69022B3A
:101B300028BF012505E0D4F828310133C4F8283145
:101B40000025D4F81C31002B0CBF28460120BDE82D
:101B5000F087D4F8CC301B68002B43D04FF05003F3
:101B600083F31188BFF36F8FBFF34F8FFEE7DFF86A
:101B7000B4A000254FF0010927E0D4F8CC30DB6891
:101B8000DF687B6807F104089E42404627D3FFF7D1
:101B90003BFDBB6A07F118000BB1FFF735FDF86A92
:101BA000D4F8B02009FA00F300EB8000134341465B
:101BB0000AEB8000C4F8B030FFF7FCFCD4F8AC307E
:101BC000FA6ADB6A9A4228BF0125D4F8CC301B6838
:101BD000002BD2D14FF0FF33C4F8D0309FE7C4F8C8
:101BE000D0309CE7D4F8CC30D4F8C820C4F8CC204E
:101BF000C4F8C830D4F824310133C4F82431D4F8FF
:101C0000CC301B6823B94FF0FF33C4F8D03081E7E4
:101C1000D4F8CC30DB68DB685B68C4F8D03079E797
:101C20002C000020480000202DE9F0413A4CD4F867
:101C3000183143B94FF0500383F31188BFF36F8F0E
:101C4000BFF34F8FFEE700F02DF9D4F81831013BB8
:101C5000C4F81831D4F818515DBBA3694BB3012601
:101C600004F11C07D4F8FC304BB3D4F80831DD681C
:101C700005F1040805F11800FFF7C6FC4046FFF720
:101C8000C3FCE86AD4F8B02006FA00F300EB800049
:101C90001343414607EB8000C4F8B030FFF78AFCDD
:101CA000D4F8AC30EA6ADB6A9A42DBD3C4F81C6130
:101CB000D8E7002400F018F92046BDE8F0813DB1D6
:101CC000D4F8CC301B68F3B94FF0FF33C4F8D030F0
:101CD000D4F828514DB10126FFF710FF08B1C4F820
:101CE0001C61013DF8D1C4F82851D4F81C31002BF7
:101CF000DFD00A4B4FF080521A60BFF34F8FBFF313
:101D00006F8F0124D6E7D4F8CC30DB68DB685B68E2
:101D1000C4F8D030DCE700BF2C00002004ED00E068
:101D200008B5B0B10F4BD3F8181141B14FF05003C3
:101D300083F31188BFF36F8FBFF34F8FFEE7D3F8A4
:101D400018210132C3F81821FFF79EFCFFF76CFF42
:101D500038B9054B4FF080521A60BFF34F8FBFF375
:101D60006F8F08BD2C00002004ED00E0194AD2F866
:101D70001831E3B910B4C2F81C31D2F8B030B3FA5C
:101D800083F3DBB2C3F11F0303EB83018900541813
:101D9000E06980B1206A11444068206224318842A1
:101DA00012D0C368C2F8AC305DF8044B7047012311
:101DB000C2F81C3170474FF0500383F31188BFF312
:101DC0006F8FBFF34F8FFEE7142101FB03234068A1
:101DD0001862E6E72C0000200E4B1B6882B0002240
:101DE0000133019208D04FF0500383F31188BFF301
:101DF0006F8FBFF34F8FFEE74FF0500383F31188CF
:101E0000BFF36F8FBFF34F8F019B002BFCD002B04D
:101E1000704700BF0800002008480068006880F391
:101E200008884FF0000080F3148862B661B6BFF3F3
:101E30004F8FBFF36F8F00DF00BF000008ED00E0A1
:101E4000DFF80C00016841F4700101607047000088
:101E500088ED00E030B421F001014FF08075074CAF
:101E600040F80C4C6FF0020340F8202C40E90215BA
:101E700040F8243C30BC4438704700BFD91D0008EE
:101E8000074B19680868B0E8F04F80F30988BFF382
:101E90006F8F4FF0000080F311887047AFF3008020
:101EA000D80000204FF0500383F31188BFF36F8FE9
:101EB000BFF34F8F0A4A13680133012B136000D020
:101EC0007047084B1B6813F0FF0FF9D04FF0500319
:101ED00083F31188BFF36F8FBFF34F8FFEE700BF0F
:101EE0000800002004ED00E0084A136843B94FF0F1
:101EF000500383F31188BFF36F8FBFF34F8FFEE75B
:101F0000013B13600BB983F3118870470800002070
:101F1000EFF30980BFF36F8F154B1A681EF0100F97
:101F200008BF20ED108A20E9F04F10602DE909006C
:101F30004FF0500080F31188BFF34F8FBFF36F8FC6
:101F4000FFF714FF4FF0000080F3118809BC1968F7
:101F50000868B0E8F04F1EF0100F08BFB0EC108A10
:101F600080F30988BFF36F8F704700BFAFF3008025
:101F7000D800002008B54FF0500383F31188BFF359
:101F80006F8FBFF34F8FFFF7B9FD18B1034B4FF0C1
:101F900080521A60002383F3118808BD04ED00E02D
:101FA00030B4094A094D0A4B0A4C0B480021116014
:101FB00029601B68A4FB03139B09013B07210360F5
:101FC00030BC1160704700BF10E000E018E000E096
:101FD0000C000020D34D621014E000E0394B3A4A67
:101FE000196891423FD01A68384B9A4232D010B5E6
:101FF000374B38491A7882B0FF20D2B2019218705C
:102000001B78DBB28DF803309DF803309DF8032078
:10201000072003F05003486010060B7011D506230B
:1020200000E003469DF803205200D2B28DF8032051
:102030009DF80320120603F1FF30F2D4032B4B600E
:102040001AD04FF0500383F31188BFF36F8FBFF3A3
:102050004F8FFEE74FF0500383F31188BFF36F8F6C
:10206000BFF34F8FFEE74FF0500383F31188BFF3A8
:102070006F8FBFF34F8FFEE70198154C164AC0B221
:102080002070106840F47000106010681B0240F06F
:102090007040106003F4E0634B60FFF781FF0F4B6B
:1020A00000241C60FFF7CCFE0D4A136843F0404348
:1020B0001360FFF7B1FEFFF759FEFFF78DFE2046D4
:1020C00002B010BD00ED00E071C20F4170C20F41BF
:1020D00000E400E05801002020ED00E008000020AE
:1020E00034EF00E0114B30B41D461A68824201D231
:1020F0001346FAE75C681919884203D14168214404
:1021000059601846446801198A4208D1A9688A4270
:1021100005D0D2E9002121440260416000E0026064
:10212000984218BF186030BC704700BF60010020A3
:10213000F8B53A4D0446FFF7D7FCAA68002A53D0F9
:10214000EE6834424BD1002C49D004F10803580703
:102150001CBF23F007030833002B40D06F699F4258
:102160003DD32C682D4806E0D4F800C0BCF1000F28
:1021700004D02046644661689942F5D394422ED03B
:1021800022680260CA1A102A10D9E018410708D044
:102190004FF0500383F31188BFF36F8FBFF34F8F5E
:1021A000FEE742606360FFF79DFF61682A697F1A5E
:1021B000002331439742C4E9003104F1080438BFD9
:1021C0002F616F61FFF730FD63070BD04FF05003B5
:1021D00083F31188BFF36F8FBFF34F8FFEE7FFF7D5
:1021E00023FD00242046F8BD0D4B0E4A5E0718BFA4
:1021F000073322F0070218BF23F007032B601846AD
:102200000027D31A4FF00046C5E90172C5E904332F
:10221000C2E90077EE60C0E9002392E76001002088
:1022200078010020703D0020D8B138B5174D50F826
:10223000043CEA68134208D14FF0500383F311883D
:10224000BFF36F8FBFF34F8FFEE750F8081C49B103
:102250004FF0500383F31188BFF36F8FBFF34F8F9D
:10226000FEE77047044623EA020340F8043CFFF708
:102270003BFC6A6954F8043CA4F1080013446B6108
:10228000FFF730FFBDE83840FFF7CEBC600100200B
:1022900008B50120FFF776F9FBE700BF30B5074D21
:1022A0000FCD87B001AC0FC42B682360002101A8BB
:1022B000FFF750F9024B186007B030BDA0280008A6
:1022C000803D002030B500248BB0CDE90544CDE938
:1022D0000744234B019409941A6B224D42F080026B
:1022E0001A631A6B02F080020192019A02941A6B2F
:1022F00042F002021A631A6B02F002020292029A80
:1023000003941A6B42F004021A631A6B02F004027F
:102310000392039A04941A6B42F001021A631B6B36
:1023200003F001030493224628460421049BFEF790
:102330004BFA284605A904220123CDE90523CDE95E
:102340000744FEF761F9084B084807944FF4004230
:1023500005A9CDE90523FEF757F90BB030BD00BF45
:10236000003802400004024000001110000002404A
:102370000C4B0D4A10B54FF480410C4C1A601846B6
:1023800000225C601961C3E90222C3E90522C3E9A6
:102390000722FEF71DFA00B910BDBDE8104000F09D
:1023A000F3B800BF843D002000540040A086010027
:1023B00070B50268184B88B000249A42CDE90344F6
:1023C000CDE90544079401D008B070BD134D0194C8
:1023D0002B6B134843F002032B632B6B03F00203B8
:1023E0000193C02303931222012304920593032235
:1023F000042303A9CDE90623019EFEF705F9029403
:102400002B6C43F400132B642B6C03F40013029326
:10241000029B08B070BD00BF00540040003802406D
:102420000004024000B5094C094D8BB094E803004C
:102430000A230090ADF804101A4669462846FEF7B4
:10244000FBFF4FF4FA70FFF76BFCEFE7D8280008AA
:10245000183E002030B5002495B0CDE90A44CDE9FE
:102460000C44CDE90444CDE906441C4A019403948C
:10247000116C1B4B41F080511164126C02F08052C0
:102480000192019A02941A6842F440421A601B6851
:1024900003F4404302934FF48032012302254FF4AA
:1024A00080010298089309920423542208A80F91EE
:1024B0001093139311920E951295FEF741FA0F2285
:1024C0004FF4805303A82946CDE90454079403929E
:1024D0000693FEF725FC15B030BD00BF0038024062
:1024E0000070004000B58DB0FDF7FAFFFFF7B2FFB6
:1024F000FFF7E8FEFFF73CFF00F0FCF800F0DEF825
:10250000154B93E8030002AC0A231A4684E8030043
:1025100021461248FEF790FF6420FEF70DF8104B9D
:1025200093E803000A231A4684E8030021460D4875
:10253000FEF782FF6420FDF7FFFFFFF7AFFE0A4BB7
:102540000193022300938022002308490848FFF7E3
:10255000DFF8FEF7F9FFFEE7E0280008583E00200C
:10256000E8280008183E0020783D0020F0280008E8
:10257000252400080268034B9A4200D07047FDF7FB
:10258000C9BF00BF00000140704700BF82B00E4BC2
:1025900000220092596C41F480415964596C01F455
:1025A0008041009100990192196C41F080511964A9
:1025B0001B6C03F080530193019B0F216FF001000E
:1025C00002B0FDF7DDBF00BF0038024030B5014664
:1025D00089B000221920FDF7D3FF1920FEF706F875
:1025E0000025154B02955A6C144C42F001025A64B6
:1025F0005B6C03F0010301A9029303A8029BFEF7A1
:1026000049FCFEF737FC0E4B0E492561A3FB002366
:102610009B0C013B40F2E7322046C4E901352160C2
:10262000E260FEF75BFC10B1012009B030BD20462E
:10263000FEF7B2FC09B030BD00380240D83D0020A2
:1026400083DE1B4300000140704700BFFEE700BF70
:10265000FEE700BFFEE700BFFEE700BF704700BF18
:102660000148FEF7B1BC00BFD83D00201049114B16
:10267000D1F8882042F4700210B4C1F888201A689A
:102680000D4C002042F001021A6098601A6822F096
:10269000847222F480321A605C601A684FF0006421
:1026A00022F480221A60D8608C605DF8044B704779
:1026B00000ED00E000380240103000240B4B0C4AC3
:1026C00010B50C211A604FF41644002218465C60C5
:1026D0005961C3E902221A61C3E90622FEF722FD0D
:1026E00000B910BDBDE81040FFF74EBF183E0020F6
:1026F000001001400B4B0C4A10B50C211A604FF42E
:10270000E134002218465C605961C3E902221A6173
:10271000C3E90622FEF706FD00B910BDBDE8104072
:10272000FFF732BF583E00200014014070B5026828
:1027300029498AB000238A42CDE90533CDE9073320
:10274000099329D025498A4201D00AB070BD244A94
:102750000393516C234841F020015164516C01F006
:102760002001039103990493136B43F00403136353
:10277000136B03F004030493049EC023059305A97F
:102780000225012403220823CDE90654CDE90823BC
:10279000FDF73AFF0AB070BD114A0193516C12481F
:1027A00041F010015164516C01F010010191019947
:1027B0000293136B43F001031363136B03F00103E4
:1027C00002934FF4C063059305A902250124032257
:1027D000029E0723D8E700BF00100140001401400B
:1027E000003802400008024000000240DFF834D008
:1027F000002103E00C4B5B58435004310B480C4B59
:1028000042189A42F6D30B4A02E0002342F8043BF6
:10281000094B9A42F9D3FFF729FF00F011F8FFF7AF
:1028200061FE704700000220082900080000002017
:102830001000002010000020983E0020FEE700005D
:1028400070B50D4E0D4CA41BA4100025A54209D156
:102850000B4E0C4C00F018F8A41BA4100025A54248
:1028600005D170BD56F8253098470135EEE756F88A
:10287000253098470135F2E70029000800290008B3
:102880000029000804290008F8B500BFF8BC08BCFE
:102890009E467047F8B500BFF8BC08BC9E4670471E
:1028A000CC28000891220008000000000000000071
:1028B000800000000000000000000000010203048E
:1028C0000607080900000000010203046465666150
:1028D000756C745461736B005531620A0D00000011
:1028E00043455345320A0D0055415254310A0D00FB
:0828F0005461736B2D310000EF
:0828F80018D9FF7F0100000068
:04290000C501000805
:04290400A101000825
:102908000100000010000000AAAAAAAA0024F400EE
:04000005080027EDDB
:00000001FF
